{"abi":[{"type":"constructor","inputs":[],"stateMutability":"nonpayable"},{"type":"receive","stateMutability":"payable"},{"type":"function","name":"_accountValidation","inputs":[{"name":"opIndex","type":"uint256","internalType":"uint256"},{"name":"userOp","type":"tuple","internalType":"struct PackedUserOperation","components":[{"name":"sender","type":"address","internalType":"address"},{"name":"nonce","type":"uint256","internalType":"uint256"},{"name":"initCode","type":"bytes","internalType":"bytes"},{"name":"callData","type":"bytes","internalType":"bytes"},{"name":"accountGasLimits","type":"bytes32","internalType":"bytes32"},{"name":"preVerificationGas","type":"uint256","internalType":"uint256"},{"name":"gasFees","type":"bytes32","internalType":"bytes32"},{"name":"paymasterAndData","type":"bytes","internalType":"bytes"},{"name":"signature","type":"bytes","internalType":"bytes"}]},{"name":"outOpInfo","type":"tuple","internalType":"struct EntryPoint.UserOpInfo","components":[{"name":"mUserOp","type":"tuple","internalType":"struct EntryPoint.MemoryUserOp","components":[{"name":"sender","type":"address","internalType":"address"},{"name":"nonce","type":"uint256","internalType":"uint256"},{"name":"verificationGasLimit","type":"uint256","internalType":"uint256"},{"name":"callGasLimit","type":"uint256","internalType":"uint256"},{"name":"paymasterVerificationGasLimit","type":"uint256","internalType":"uint256"},{"name":"paymasterPostOpGasLimit","type":"uint256","internalType":"uint256"},{"name":"preVerificationGas","type":"uint256","internalType":"uint256"},{"name":"paymaster","type":"address","internalType":"address"},{"name":"maxFeePerGas","type":"uint256","internalType":"uint256"},{"name":"maxPriorityFeePerGas","type":"uint256","internalType":"uint256"}]},{"name":"userOpHash","type":"bytes32","internalType":"bytes32"},{"name":"prefund","type":"uint256","internalType":"uint256"},{"name":"contextOffset","type":"uint256","internalType":"uint256"},{"name":"preOpGas","type":"uint256","internalType":"uint256"}]}],"outputs":[{"name":"validationData","type":"uint256","internalType":"uint256"},{"name":"paymasterValidationData","type":"uint256","internalType":"uint256"},{"name":"paymasterVerificationGasLimit","type":"uint256","internalType":"uint256"}],"stateMutability":"nonpayable"},{"type":"function","name":"_paymasterValidation","inputs":[{"name":"opIndex","type":"uint256","internalType":"uint256"},{"name":"userOp","type":"tuple","internalType":"struct PackedUserOperation","components":[{"name":"sender","type":"address","internalType":"address"},{"name":"nonce","type":"uint256","internalType":"uint256"},{"name":"initCode","type":"bytes","internalType":"bytes"},{"name":"callData","type":"bytes","internalType":"bytes"},{"name":"accountGasLimits","type":"bytes32","internalType":"bytes32"},{"name":"preVerificationGas","type":"uint256","internalType":"uint256"},{"name":"gasFees","type":"bytes32","internalType":"bytes32"},{"name":"paymasterAndData","type":"bytes","internalType":"bytes"},{"name":"signature","type":"bytes","internalType":"bytes"}]},{"name":"outOpInfo","type":"tuple","internalType":"struct EntryPoint.UserOpInfo","components":[{"name":"mUserOp","type":"tuple","internalType":"struct EntryPoint.MemoryUserOp","components":[{"name":"sender","type":"address","internalType":"address"},{"name":"nonce","type":"uint256","internalType":"uint256"},{"name":"verificationGasLimit","type":"uint256","internalType":"uint256"},{"name":"callGasLimit","type":"uint256","internalType":"uint256"},{"name":"paymasterVerificationGasLimit","type":"uint256","internalType":"uint256"},{"name":"paymasterPostOpGasLimit","type":"uint256","internalType":"uint256"},{"name":"preVerificationGas","type":"uint256","internalType":"uint256"},{"name":"paymaster","type":"address","internalType":"address"},{"name":"maxFeePerGas","type":"uint256","internalType":"uint256"},{"name":"maxPriorityFeePerGas","type":"uint256","internalType":"uint256"}]},{"name":"userOpHash","type":"bytes32","internalType":"bytes32"},{"name":"prefund","type":"uint256","internalType":"uint256"},{"name":"contextOffset","type":"uint256","internalType":"uint256"},{"name":"preOpGas","type":"uint256","internalType":"uint256"}]}],"outputs":[{"name":"validationData","type":"uint256","internalType":"uint256"},{"name":"paymasterValidationData","type":"uint256","internalType":"uint256"},{"name":"paymasterVerificationGasLimit","type":"uint256","internalType":"uint256"}],"stateMutability":"nonpayable"},{"type":"function","name":"_validatePrepayment","inputs":[{"name":"opIndex","type":"uint256","internalType":"uint256"},{"name":"userOp","type":"tuple","internalType":"struct PackedUserOperation","components":[{"name":"sender","type":"address","internalType":"address"},{"name":"nonce","type":"uint256","internalType":"uint256"},{"name":"initCode","type":"bytes","internalType":"bytes"},{"name":"callData","type":"bytes","internalType":"bytes"},{"name":"accountGasLimits","type":"bytes32","internalType":"bytes32"},{"name":"preVerificationGas","type":"uint256","internalType":"uint256"},{"name":"gasFees","type":"bytes32","internalType":"bytes32"},{"name":"paymasterAndData","type":"bytes","internalType":"bytes"},{"name":"signature","type":"bytes","internalType":"bytes"}]},{"name":"outOpInfo","type":"tuple","internalType":"struct EntryPoint.UserOpInfo","components":[{"name":"mUserOp","type":"tuple","internalType":"struct EntryPoint.MemoryUserOp","components":[{"name":"sender","type":"address","internalType":"address"},{"name":"nonce","type":"uint256","internalType":"uint256"},{"name":"verificationGasLimit","type":"uint256","internalType":"uint256"},{"name":"callGasLimit","type":"uint256","internalType":"uint256"},{"name":"paymasterVerificationGasLimit","type":"uint256","internalType":"uint256"},{"name":"paymasterPostOpGasLimit","type":"uint256","internalType":"uint256"},{"name":"preVerificationGas","type":"uint256","internalType":"uint256"},{"name":"paymaster","type":"address","internalType":"address"},{"name":"maxFeePerGas","type":"uint256","internalType":"uint256"},{"name":"maxPriorityFeePerGas","type":"uint256","internalType":"uint256"}]},{"name":"userOpHash","type":"bytes32","internalType":"bytes32"},{"name":"prefund","type":"uint256","internalType":"uint256"},{"name":"contextOffset","type":"uint256","internalType":"uint256"},{"name":"preOpGas","type":"uint256","internalType":"uint256"}]},{"name":"validatePaymasterPrepayment","type":"bool","internalType":"bool"}],"outputs":[{"name":"validationData","type":"uint256","internalType":"uint256"},{"name":"paymasterValidationData","type":"uint256","internalType":"uint256"},{"name":"paymasterVerificationGasLimit","type":"uint256","internalType":"uint256"}],"stateMutability":"nonpayable"},{"type":"function","name":"addStake","inputs":[{"name":"unstakeDelaySec","type":"uint32","internalType":"uint32"}],"outputs":[],"stateMutability":"payable"},{"type":"function","name":"balanceOf","inputs":[{"name":"account","type":"address","internalType":"address"}],"outputs":[{"name":"","type":"uint256","internalType":"uint256"}],"stateMutability":"view"},{"type":"function","name":"delegateAndRevert","inputs":[{"name":"target","type":"address","internalType":"address"},{"name":"data","type":"bytes","internalType":"bytes"}],"outputs":[],"stateMutability":"nonpayable"},{"type":"function","name":"depositTo","inputs":[{"name":"account","type":"address","internalType":"address"}],"outputs":[],"stateMutability":"payable"},{"type":"function","name":"eip712Domain","inputs":[],"outputs":[{"name":"fields","type":"bytes1","internalType":"bytes1"},{"name":"name","type":"string","internalType":"string"},{"name":"version","type":"string","internalType":"string"},{"name":"chainId","type":"uint256","internalType":"uint256"},{"name":"verifyingContract","type":"address","internalType":"address"},{"name":"salt","type":"bytes32","internalType":"bytes32"},{"name":"extensions","type":"uint256[]","internalType":"uint256[]"}],"stateMutability":"view"},{"type":"function","name":"getDepositInfo","inputs":[{"name":"account","type":"address","internalType":"address"}],"outputs":[{"name":"info","type":"tuple","internalType":"struct IStakeManager.DepositInfo","components":[{"name":"deposit","type":"uint256","internalType":"uint256"},{"name":"staked","type":"bool","internalType":"bool"},{"name":"stake","type":"uint112","internalType":"uint112"},{"name":"unstakeDelaySec","type":"uint32","internalType":"uint32"},{"name":"withdrawTime","type":"uint48","internalType":"uint48"}]}],"stateMutability":"view"},{"type":"function","name":"getDomainSeparatorV4","inputs":[],"outputs":[{"name":"","type":"bytes32","internalType":"bytes32"}],"stateMutability":"view"},{"type":"function","name":"getNonce","inputs":[{"name":"sender","type":"address","internalType":"address"},{"name":"key","type":"uint192","internalType":"uint192"}],"outputs":[{"name":"nonce","type":"uint256","internalType":"uint256"}],"stateMutability":"view"},{"type":"function","name":"getPackedUserOpTypeHash","inputs":[],"outputs":[{"name":"","type":"bytes32","internalType":"bytes32"}],"stateMutability":"pure"},{"type":"function","name":"getUserOpHash","inputs":[{"name":"userOp","type":"tuple","internalType":"struct PackedUserOperation","components":[{"name":"sender","type":"address","internalType":"address"},{"name":"nonce","type":"uint256","internalType":"uint256"},{"name":"initCode","type":"bytes","internalType":"bytes"},{"name":"callData","type":"bytes","internalType":"bytes"},{"name":"accountGasLimits","type":"bytes32","internalType":"bytes32"},{"name":"preVerificationGas","type":"uint256","internalType":"uint256"},{"name":"gasFees","type":"bytes32","internalType":"bytes32"},{"name":"paymasterAndData","type":"bytes","internalType":"bytes"},{"name":"signature","type":"bytes","internalType":"bytes"}]}],"outputs":[{"name":"","type":"bytes32","internalType":"bytes32"}],"stateMutability":"view"},{"type":"function","name":"incrementNonce","inputs":[{"name":"key","type":"uint192","internalType":"uint192"}],"outputs":[],"stateMutability":"nonpayable"},{"type":"function","name":"innerHandleOp","inputs":[{"name":"callData","type":"bytes","internalType":"bytes"},{"name":"opInfo","type":"tuple","internalType":"struct EntryPoint.UserOpInfo","components":[{"name":"mUserOp","type":"tuple","internalType":"struct EntryPoint.MemoryUserOp","components":[{"name":"sender","type":"address","internalType":"address"},{"name":"nonce","type":"uint256","internalType":"uint256"},{"name":"verificationGasLimit","type":"uint256","internalType":"uint256"},{"name":"callGasLimit","type":"uint256","internalType":"uint256"},{"name":"paymasterVerificationGasLimit","type":"uint256","internalType":"uint256"},{"name":"paymasterPostOpGasLimit","type":"uint256","internalType":"uint256"},{"name":"preVerificationGas","type":"uint256","internalType":"uint256"},{"name":"paymaster","type":"address","internalType":"address"},{"name":"maxFeePerGas","type":"uint256","internalType":"uint256"},{"name":"maxPriorityFeePerGas","type":"uint256","internalType":"uint256"}]},{"name":"userOpHash","type":"bytes32","internalType":"bytes32"},{"name":"prefund","type":"uint256","internalType":"uint256"},{"name":"contextOffset","type":"uint256","internalType":"uint256"},{"name":"preOpGas","type":"uint256","internalType":"uint256"}]},{"name":"context","type":"bytes","internalType":"bytes"},{"name":"preGas","type":"uint256","internalType":"uint256"}],"outputs":[{"name":"actualGasCost","type":"uint256","internalType":"uint256"},{"name":"paymasterPostOpGasLimit","type":"uint256","internalType":"uint256"}],"stateMutability":"nonpayable"},{"type":"function","name":"nonceSequenceNumber","inputs":[{"name":"","type":"address","internalType":"address"},{"name":"","type":"uint192","internalType":"uint192"}],"outputs":[{"name":"","type":"uint256","internalType":"uint256"}],"stateMutability":"view"},{"type":"function","name":"senderCreator","inputs":[],"outputs":[{"name":"","type":"address","internalType":"contract ISenderCreator"}],"stateMutability":"view"},{"type":"function","name":"unlockStake","inputs":[],"outputs":[],"stateMutability":"nonpayable"},{"type":"function","name":"withdrawStake","inputs":[{"name":"withdrawAddress","type":"address","internalType":"address payable"}],"outputs":[],"stateMutability":"nonpayable"},{"type":"function","name":"withdrawTo","inputs":[{"name":"withdrawAddress","type":"address","internalType":"address payable"},{"name":"withdrawAmount","type":"uint256","internalType":"uint256"}],"outputs":[],"stateMutability":"nonpayable"},{"type":"event","name":"AccountDeployed","inputs":[{"name":"userOpHash","type":"bytes32","indexed":true,"internalType":"bytes32"},{"name":"sender","type":"address","indexed":true,"internalType":"address"},{"name":"factory","type":"address","indexed":false,"internalType":"address"},{"name":"paymaster","type":"address","indexed":false,"internalType":"address"}],"anonymous":false},{"type":"event","name":"BeforeExecution","inputs":[],"anonymous":false},{"type":"event","name":"Deposited","inputs":[{"name":"account","type":"address","indexed":true,"internalType":"address"},{"name":"totalDeposit","type":"uint256","indexed":false,"internalType":"uint256"}],"anonymous":false},{"type":"event","name":"EIP712DomainChanged","inputs":[],"anonymous":false},{"type":"event","name":"PostOpRevertReason","inputs":[{"name":"userOpHash","type":"bytes32","indexed":true,"internalType":"bytes32"},{"name":"sender","type":"address","indexed":true,"internalType":"address"},{"name":"nonce","type":"uint256","indexed":false,"internalType":"uint256"},{"name":"revertReason","type":"bytes","indexed":false,"internalType":"bytes"}],"anonymous":false},{"type":"event","name":"SignatureAggregatorChanged","inputs":[{"name":"aggregator","type":"address","indexed":true,"internalType":"address"}],"anonymous":false},{"type":"event","name":"StakeLocked","inputs":[{"name":"account","type":"address","indexed":true,"internalType":"address"},{"name":"totalStaked","type":"uint256","indexed":false,"internalType":"uint256"},{"name":"unstakeDelaySec","type":"uint256","indexed":false,"internalType":"uint256"}],"anonymous":false},{"type":"event","name":"StakeUnlocked","inputs":[{"name":"account","type":"address","indexed":true,"internalType":"address"},{"name":"withdrawTime","type":"uint256","indexed":false,"internalType":"uint256"}],"anonymous":false},{"type":"event","name":"StakeWithdrawn","inputs":[{"name":"account","type":"address","indexed":true,"internalType":"address"},{"name":"withdrawAddress","type":"address","indexed":false,"internalType":"address"},{"name":"amount","type":"uint256","indexed":false,"internalType":"uint256"}],"anonymous":false},{"type":"event","name":"UserOperationEvent","inputs":[{"name":"userOpHash","type":"bytes32","indexed":true,"internalType":"bytes32"},{"name":"sender","type":"address","indexed":true,"internalType":"address"},{"name":"paymaster","type":"address","indexed":true,"internalType":"address"},{"name":"nonce","type":"uint256","indexed":false,"internalType":"uint256"},{"name":"success","type":"bool","indexed":false,"internalType":"bool"},{"name":"actualGasCost","type":"uint256","indexed":false,"internalType":"uint256"},{"name":"actualGasUsed","type":"uint256","indexed":false,"internalType":"uint256"}],"anonymous":false},{"type":"event","name":"UserOperationPrefundTooLow","inputs":[{"name":"userOpHash","type":"bytes32","indexed":true,"internalType":"bytes32"},{"name":"sender","type":"address","indexed":true,"internalType":"address"},{"name":"nonce","type":"uint256","indexed":false,"internalType":"uint256"}],"anonymous":false},{"type":"event","name":"UserOperationRevertReason","inputs":[{"name":"userOpHash","type":"bytes32","indexed":true,"internalType":"bytes32"},{"name":"sender","type":"address","indexed":true,"internalType":"address"},{"name":"nonce","type":"uint256","indexed":false,"internalType":"uint256"},{"name":"revertReason","type":"bytes","indexed":false,"internalType":"bytes"}],"anonymous":false},{"type":"event","name":"Withdrawn","inputs":[{"name":"account","type":"address","indexed":true,"internalType":"address"},{"name":"withdrawAddress","type":"address","indexed":false,"internalType":"address"},{"name":"amount","type":"uint256","indexed":false,"internalType":"uint256"}],"anonymous":false},{"type":"error","name":"CallPhaseReverted","inputs":[{"name":"reason","type":"bytes","internalType":"bytes"}]},{"type":"error","name":"DelegateAndRevert","inputs":[{"name":"success","type":"bool","internalType":"bool"},{"name":"ret","type":"bytes","internalType":"bytes"}]},{"type":"error","name":"FailedOp","inputs":[{"name":"opIndex","type":"uint256","internalType":"uint256"},{"name":"reason","type":"string","internalType":"string"}]},{"type":"error","name":"FailedOpWithRevert","inputs":[{"name":"opIndex","type":"uint256","internalType":"uint256"},{"name":"reason","type":"string","internalType":"string"},{"name":"inner","type":"bytes","internalType":"bytes"}]},{"type":"error","name":"InvalidShortString","inputs":[]},{"type":"error","name":"PostOpReverted","inputs":[{"name":"returnData","type":"bytes","internalType":"bytes"}]},{"type":"error","name":"ReentrancyGuardReentrantCall","inputs":[]},{"type":"error","name":"SenderAddressResult","inputs":[{"name":"sender","type":"address","internalType":"address"}]},{"type":"error","name":"SignatureValidationFailed","inputs":[{"name":"aggregator","type":"address","internalType":"address"}]},{"type":"error","name":"StringTooLong","inputs":[{"name":"str","type":"string","internalType":"string"}]}],"bytecode":{"object":"0x610160604052346101275760405161001860408261012b565b600781526020810190664552433433333760c81b82526040519161003d60408461012b565b600183526020830191603160f81b835261005681610162565b61012052610063846102fd565b61014052519020918260e05251902080610100524660a0526040519060208201927f8b73c3c69bb8fe3d512ecc4cf759cc79239f7b179b0ffacaa9a75d522b39400f8452604083015260608201524660808201523060a082015260a081526100cc60c08261012b565b5190206080523060c052604051612d8e9081610436823960805181611f5b015260a05181612018015260c05181611f2c015260e05181611faa01526101005181611fd001526101205181610a8901526101405181610ab30152f35b5f80fd5b601f909101601f19168101906001600160401b0382119082101761014e57604052565b634e487b7160e01b5f52604160045260245ffd5b908151602081105f146101dc575090601f81511161019c57602081519101516020821061018d571790565b5f198260200360031b1b161790565b604460209160405192839163305a27a960e01b83528160048401528051918291826024860152018484015e5f828201840152601f01601f19168101030190fd5b6001600160401b03811161014e57600254600181811c911680156102f3575b60208210146102df57601f81116102ac575b50602092601f821160011461024b57928192935f92610240575b50508160011b915f199060031b1c19161760025560ff90565b015190505f80610227565b601f1982169360025f52805f20915f5b868110610294575083600195961061027c575b505050811b0160025560ff90565b01515f1960f88460031b161c191690555f808061026e565b9192602060018192868501518155019401920161025b565b60025f52601f60205f20910160051c810190601f830160051c015b8181106102d4575061020d565b5f81556001016102c7565b634e487b7160e01b5f52602260045260245ffd5b90607f16906101fb565b908151602081105f14610328575090601f81511161019c57602081519101516020821061018d571790565b6001600160401b03811161014e57600354600181811c9116801561042b575b60208210146102df57601f81116103f8575b50602092601f821160011461039757928192935f9261038c575b50508160011b915f199060031b1c19161760035560ff90565b015190505f80610373565b601f1982169360035f52805f20915f5b8681106103e057508360019596106103c8575b505050811b0160035560ff90565b01515f1960f88460031b161c191690555f80806103ba565b919260206001819286850151815501940192016103a7565b60035f52601f60205f20910160051c810190601f830160051c015b8181106104205750610359565b5f8155600101610413565b90607f169061034756fe6080806040526004361015610025575b50361561001a575f80fd5b61002333611e9c565b005b5f905f3560e01c9081630396cb60146117af5750806309ccb880146117845780630bd28e3b146117335780630da826611461134e57806313c65a6e14611333578063154e58dc146112f85780631b2e01b8146112a3578063205c28781461117b57806321e60b3714610f5557806322cdde4c14610f0b57806335567e1a14610ea75780635287ce1214610dcc57806369683cfa14610bbe57806370a0823114610b8757806384b0196e14610a6f578063850aaf6214610a15578063b760faf9146109f5578063bb9fe6bf14610896578063c23a5cea146106a65763c579f76b0361000f57346106a3576102203660031901126106a3576004359060243567ffffffffffffffff81116106a1578060040190610120600319823603011261069d573660431901936101c08512610699576101406040519561016487611a76565b126106995760405161017581611aa6565b6044356001600160a01b03811681036106955781526064356020820152608435604082015260a435606082015260c435608082015260e43560a08201526101043560c0820152610124356001600160a01b03811681036106955760e082015261014435610100820152610164356101208201528552602085019161018435835260408601926101a435845260608701966101c435885260808101936101e4358552610204359182151583036106915788975a948251936102358584612085565b6040519961024284611d70565b83528a60405260408601519a6effffffffffffffffffffffffffffff8c60c08901511760608901511760808901511760a08901511761010089015117610120890151171161064757506102cd6102b987610100604082015160608301510160808301510160a08301510160c0830151019101510290565b80835260848b013560801c90878786612397565b9a6102e76001600160a01b038851166020890151906125a2565b156105f2575a89031161059d576060966001600160a01b0360e05a9801511615159081610595575b50610379575b5050505050610325905a90611d34565b976073890298808a046073149015171561036557606496949260609996949260a492525a9003910135019052604051945084526020840152046040820152f35b602488634e487b7160e01b81526011600452fd5b91939a509193945061038e60e4880185612052565b9050602411610591575a928a516103b46001600160a01b0360e083015116845190612608565b15610545578c9160808392015193826040519e8f80945193519a602082019b8c956314add44b60e21b875260248401926103ed9361267f565b03601f19810185526103ff9085611ac3565b5160e001516001600160a01b031692519286f1993d94858d833e51948151604083019c8d519015918215610539575b508115610527575b506104bc57601f01601f1916016040819052925a900311610463575050610325909691905f808080610315565b60a49250631101335b60e11b8252600482015260406024820152602760448201527f41413336206f766572207061796d6173746572566572696669636174696f6e47606482015266185cd31a5b5a5d60ca1b6084820152fd5b836104c5611ef5565b906105236040519283926365c8fd4d60e01b8452600484015260606024840152600d60648401527f4141333320726576657274656400000000000000000000000000000000000000608484015260a0604484015260a4830190611c78565b0390fd5b9050601f605f1983019101105f610436565b6040141591505f61042e565b60848460405190631101335b60e11b8252600482015260406024820152601e60448201527f41413331207061796d6173746572206465706f73697420746f6f206c6f7700006064820152fd5b8a80fd5b90505f61030f565b61052382604051918291631101335b60e11b835260048301608091815260406020820152601e60408201527f41413236206f76657220766572696669636174696f6e4761734c696d6974000060608201520190565b61052383604051918291631101335b60e11b835260048301608091815260406020820152601a60408201527f4141323520696e76616c6964206163636f756e74206e6f6e636500000000000060608201520190565b631101335b60e11b81526004810183905260406024820152601860448201527f41413934206761732076616c756573206f766572666c6f7700000000000000006064820152608490fd5b8880fd5b8580fd5b8380fd5b8280fd5b505b80fd5b50346106a35760203660031901126106a3576106c0611b47565b33825281602052600160408320018054906dffffffffffffffffffffffffffff8260081c169182156108525760981c65ffffffffffff16801561080e5742106107ca5780547fffffffffffffff000000000000000000000000000000000000000000000000ff169055604080516001600160a01b0384811682526020820184905285948594859485949193929133917fb7c918e0e249f999e965cafeb6c664271b3f4317d296461500e71da39f0cbda391a2165af161077d611d41565b50156107865780f35b606460405162461bcd60e51b815260206004820152601860248201527f6661696c656420746f207769746864726177207374616b6500000000000000006044820152fd5b606460405162461bcd60e51b815260206004820152601b60248201527f5374616b65207769746864726177616c206973206e6f742064756500000000006044820152fd5b606460405162461bcd60e51b815260206004820152601d60248201527f6d7573742063616c6c20756e6c6f636b5374616b6528292066697273740000006044820152fd5b606460405162461bcd60e51b815260206004820152601460248201527f4e6f207374616b6520746f2077697468647261770000000000000000000000006044820152fd5b50346106a357806003193601126106a3573381528060205260016040822001805463ffffffff8160781c169081156109b15760ff161561096d5765ffffffffffff4216019065ffffffffffff82116109595780547fffffffffffffff000000000000ffffffffffffffffffffffffffffffffffff001665ffffffffffff60981b609884901b1617905560405165ffffffffffff909116815233907ffa9b3c14cc825c412c9ed81b3ba365a5b459439403f18829e572ed53a4180f0a90602090a280f35b602483634e487b7160e01b81526011600452fd5b606460405162461bcd60e51b815260206004820152601160248201527f616c726561647920756e7374616b696e670000000000000000000000000000006044820152fd5b606460405162461bcd60e51b815260206004820152600a60248201527f6e6f74207374616b6564000000000000000000000000000000000000000000006044820152fd5b5060203660031901126106a357610a12610a0d611b47565b611e9c565b80f35b50346106a35760403660031901126106a357610a2f611b47565b5060243567ffffffffffffffff81116106a157366023820112156106a157806004013567ffffffffffffffff811161069d57369101602401116106a35780f35b50346106a357806003193601126106a357610b2b90610aad7f0000000000000000000000000000000000000000000000000000000000000000612b46565b90610ad77f0000000000000000000000000000000000000000000000000000000000000000612c88565b906020610b3960405193610aeb8386611ac3565b8385525f3681376040519687967f0f00000000000000000000000000000000000000000000000000000000000000885260e08589015260e0880190611c78565b908682036040880152611c78565b904660608601523060808601528260a086015284820360c08601528080855193848152019401925b828110610b7057505050500390f35b835185528695509381019392810192600101610b61565b50346106a35760203660031901126106a35760406020916001600160a01b03610bae611b47565b1681528083522054604051908152f35b50346106a357610bcd36611b71565b9190915a92815193610bdf8583612085565b610be882611d70565b60208401526040850151936effffffffffffffffffffffffffffff8560c08801511760608801511760808801511760a088015117610100880151176101208801511711610d8757610c5a86610100604082015160608301510160808301510160a08301510160c0830151019101510290565b94610c82610c6b5a88888887612397565b9760206001600160a01b03825116910151906125a2565b15610d32575a830311610ce55750610cb993929160a06080925a9560408601526060808601525a9003910135019101525a90611d34565b607381029080820460731490151715610959576064906060936040519384526020840152046040820152f35b60408051631101335b60e11b815260048101929092526024820152601e60448201527f41413236206f76657220766572696669636174696f6e4761734c696d697400006064820152608490fd5b61052382604051918291631101335b60e11b835260048301608091815260406020820152601a60408201527f4141323520696e76616c6964206163636f756e74206e6f6e636500000000000060608201520190565b60405162461bcd60e51b815260206004820152601860248201527f41413934206761732076616c756573206f766572666c6f7700000000000000006044820152606490fd5b50346106a35760203660031901126106a357604060a0916001600160a01b03610df3611b47565b8260808551610e0181611a76565b82815282602082015282878201528260608201520152168152806020522065ffffffffffff604051610e3281611a76565b63ffffffff60018454948584520154916dffffffffffffffffffffffffffff6020820160ff8516151581526040830190828660081c1682528660806060860195878960781c168752019660981c1686526040519788525115156020880152511660408601525116606084015251166080820152f35b50346106a35760403660031901126106a3576020906040610ec6611b47565b916001600160a01b03610ed7611a60565b9316815260018452206001600160c01b0382165f52825260405f20546040519167ffffffffffffffff199060401b16178152f35b50346106a35760203660031901126106a3576004359067ffffffffffffffff82116106a35761012060031983360301126106a3576020610f4d83600401611d70565b604051908152f35b50346106a357610f6436611b71565b9290918192845190610f768282612085565b610f7f81611d70565b9160208701928352610fb281610100604082015160608301510160808301510160a08301510160c0830151019101510290565b926001600160a01b0360e060408a0193868552015116610fe4575b606087876040519181835260208301526040820152f35b9091929395505a936110058851916001600160a01b0360e084015116612608565b1561112f57946001600160a01b0360e0829899611056849561104860806314add44b60e21b9c015199604051998a9351905191602085019e8f526024850161267f565b03601f198101885287611ac3565b51015116868285519287f1933d908187843e519482519060408401519015918215611123575b508115611111575b5061110857601f01601f1916016040819052915a9003116110af575060609250905f80808080610fcd565b8084631101335b60e11b60a49352600482015260406024820152602760448201527f41413336206f766572207061796d6173746572566572696669636174696f6e47606482015266185cd31a5b5a5d60ca1b6084820152fd5b866104c5611ef5565b9050601f605f1983019101105f611084565b6040141591505f61107c565b60848760405190631101335b60e11b8252600482015260406024820152601e60448201527f41413331207061796d6173746572206465706f73697420746f6f206c6f7700006064820152fd5b50346106a35760403660031901126106a357611195611b47565b6024359033835282602052604083209081549182841161125f57848080866001600160a01b03829683966111c9848b611d34565b9055604080516001600160a01b03831681526020810185905233917fd1c19fbcd4551a5edfb66d43d2e337c04837afda3482b42bdf569a8fccdae5fb91a2165af1611212611d41565b501561121b5780f35b606460405162461bcd60e51b815260206004820152601260248201527f6661696c656420746f20776974686472617700000000000000000000000000006044820152fd5b606460405162461bcd60e51b815260206004820152601960248201527f576974686472617720616d6f756e7420746f6f206c61726765000000000000006044820152fd5b50346106a35760403660031901126106a3576001600160c01b0360406112c7611b47565b926001600160a01b036112d8611a60565b9416815260016020522091165f52602052602060405f2054604051908152f35b50346106a357806003193601126106a35760206040517f29a0bca4af4be3421398da00295e58e6d7de38cb492214754cb6a47507dd6f8e8152f35b50346106a357806003193601126106a3576020610f4d611f22565b5034611673576102203660031901126116735760043567ffffffffffffffff811161167357611381903690600401611b01565b3660231901906101c0821261167357610140604051926113a084611a76565b12611673576040516113b181611aa6565b6024356001600160a01b038116810361167357815260443560208201526064356040820152608435606082015260a435608082015260c43560a082015260e43560c0820152610104356001600160a01b03811681036116735760e08201526101243561010082015261014435610120820152825261016435602083015260408201916101843583526101a435606082015260808101916101c43583526101e43567ffffffffffffffff81116116735761146e903690600401611b01565b908251906060820151603f5a0260061c61271060a0850151830101116116e8578151908161167f575b505050505a61020435039251809301905f935a93516101008101516101208201514801808210156116775750935b6114e46001600160a01b0360e0840151169360608401519083036125e9565b01925f928061156a575050516001600160a01b0316935b5a900301010292518381105f14611534576020857fdeadaa51000000000000000000000000000000000000000000000000000000008152fd5b60409450908361155d9203906001600160a01b03165f525f60205260405f209081540180915590565b5082519182526020820152f35b9095918196805161157e575b5050506114fb565b9197509192505a9660a05a930191825190823b15611673575f916115e091836040519586809581947f7c627b21000000000000000000000000000000000000000000000000000000008352846004840152608060248401526084830190611c78565b8d8d0260448301528d60648301520393f1908161165e575b5061164257610523611608611ef5565b6040519182917fad7954bc000000000000000000000000000000000000000000000000000000008352602060048401526024830190611c78565b611655915a9003965a90039051906125e9565b905f8080611576565b61166b919a505f90611ac3565b5f985f6115f8565b5f80fd5b9050936114c5565b5f80949360206001600160a01b0383965116910192f1156116a3575f808080611497565b6105236116ae611ef5565b6040519182917f462c71b2000000000000000000000000000000000000000000000000000000008352602060048401526024830190611c78565b6084604051631101335b60e11b81525f600482015260406024820152600f60448201527f41413935206f7574206f662067617300000000000000000000000000000000006064820152fd5b34611673576020366003190112611673576004356001600160c01b038116810361167357335f5260016020526001600160c01b0360405f2091165f5260205260405f206117808154611d26565b9055005b34611673575f36600319011261167357602061179e611c9c565b6001600160a01b0360405191168152f35b60203660031901126116735760043563ffffffff811680910361167357335f525f60205260405f20918115611a1e5750600182015463ffffffff8160781c1682106119da576dffffffffffffffffffffffffffff9060081c16913483018093116119c6578215611982576dffffffffffffffffffffffffffff831161193e575460405161190b9161183f82611a76565b8152600160208083018281526dffffffffffffffffffffffffffff87166040808601918252606086018881525f6080880181815233825295819052919091209551865591519490930180549351915192517fffffffffffffff0000000000000000000000000000000000000000000000000090941660ff951515959095169490941760089190911b6effffffffffffffffffffffffffff00161760789190911b72ffffffff000000000000000000000000000000161760989190911b65ffffffffffff60981b16179055565b60405191825260208201527fa5ae833d0bb1dcd632d98a8b70973e8516812898e19bf27b70071ebc8dc52c0160403392a2005b606460405162461bcd60e51b815260206004820152600e60248201527f7374616b65206f766572666c6f770000000000000000000000000000000000006044820152fd5b606460405162461bcd60e51b815260206004820152601260248201527f6e6f207374616b652073706563696669656400000000000000000000000000006044820152fd5b634e487b7160e01b5f52601160045260245ffd5b606460405162461bcd60e51b815260206004820152601c60248201527f63616e6e6f7420646563726561736520756e7374616b652074696d65000000006044820152fd5b8062461bcd60e51b6064925260206004820152601a60248201527f6d757374207370656369667920756e7374616b652064656c61790000000000006044820152fd5b602435906001600160c01b038216820361167357565b60a0810190811067ffffffffffffffff821117611a9257604052565b634e487b7160e01b5f52604160045260245ffd5b610140810190811067ffffffffffffffff821117611a9257604052565b90601f8019910116810190811067ffffffffffffffff821117611a9257604052565b67ffffffffffffffff8111611a9257601f01601f191660200190565b81601f8201121561167357803590611b1882611ae5565b92611b266040519485611ac3565b8284526020838301011161167357815f926020809301838601378301015290565b600435906001600160a01b038216820361167357565b35906001600160a01b038216820361167357565b610200600319820112611673576004359160243567ffffffffffffffff811161167357610120818403600319011261167357600401916043190160446101c082126116735761014060405192611bc684611a76565b12611673576101a090604051611bdb81611aa6565b611be482611b5d565b81526020820135602082015260408201356040820152606082013560608201526080820135608082015260a082013560a082015260c082013560c0820152611c2e60e08301611b5d565b60e082015261010082013561010082015261012082013561012082015283526101408101356020840152610160810135604084015261018081013560608401520135608082015290565b805180835260209291819084018484015e5f828201840152601f01601f1916010190565b6040517f09ccb880000000000000000000000000000000000000000000000000000000008152602081600481305afa908115611d1b575f91611cdc575090565b90506020813d602011611d13575b81611cf760209383611ac3565b8101031261167357516001600160a01b03811681036116735790565b3d9150611cea565b6040513d5f823e3d90fd5b5f1981146119c65760010190565b919082039182116119c657565b3d15611d6b573d90611d5282611ae5565b91611d606040519384611ac3565b82523d5f602084013e565b606090565b604290611d7c816121fd565b611d84611f22565b91611d8e8161203e565b918015611e7f57905b60c0611da66060830183612052565b90816040519182372091611dbd60e0820182612052565b90816040519182372092604051946001600160a01b0360208701977f29a0bca4af4be3421398da00295e58e6d7de38cb492214754cb6a47507dd6f8e895216604087015260208301356060870152608086015260a085015260808101358285015260a081013560e085015201356101008301526101208201526101208152611e4761014082611ac3565b519020604051917f19010000000000000000000000000000000000000000000000000000000000008352600283015260228201522090565b50611e8d6040820182612052565b90816040519182372090611d97565b7f2da466a7b24304f47e87fa2e1e5a81b9831ce54fec19055ce277ca2f39ba42c460206001600160a01b03611ee934856001600160a01b03165f525f60205260405f209081540180915590565b936040519485521692a2565b3d6108008111611f19575b604051906020818301016040528082525f602083013e90565b50610800611f00565b6001600160a01b037f000000000000000000000000000000000000000000000000000000000000000016301480612015575b15611f7d577f000000000000000000000000000000000000000000000000000000000000000090565b60405160208101907f8b73c3c69bb8fe3d512ecc4cf759cc79239f7b179b0ffacaa9a75d522b39400f82527f000000000000000000000000000000000000000000000000000000000000000060408201527f000000000000000000000000000000000000000000000000000000000000000060608201524660808201523060a082015260a0815261200f60c082611ac3565b51902090565b507f00000000000000000000000000000000000000000000000000000000000000004614611f54565b356001600160a01b03811681036116735790565b903590601e1981360301821215611673570180359067ffffffffffffffff82116116735760200191813603831361167357565b612109906001600160a01b0361209a8261203e565b1683526020810135602084015260808101356fffffffffffffffffffffffffffffffff8160801c91166060850152604084015260a081013560c084015260c08101356fffffffffffffffffffffffffffffffff8160801c911661010085015261012084015260e0810190612052565b91908261211557505050565b603483106121b9578260141161167357803560601c926024811061167357601482013590603411611673576fffffffffffffffffffffffffffffffff60248193013560801c1660a084015260801c16608082015281156121755760e00152565b606460405162461bcd60e51b815260206004820152601660248201527f4141393820696e76616c6964207061796d6173746572000000000000000000006044820152fd5b606460405162461bcd60e51b815260206004820152601d60248201527f4141393320696e76616c6964207061796d6173746572416e64446174610000006044820152fd5b61220a6040820182612052565b90916122168284612761565b15612390576122249061203e565b60175f80833c5f51907fef010000000000000000000000000000000000000000000000000000000000007fffffff0000000000000000000000000000000000000000000000000000000000831603612302575060181b91601482116122b05750506040516bffffffffffffffffffffffff1990911660208201908152601482529061200f603482611ac3565b81601411611673576040516bffffffffffffffffffffffff19909316602084810191825290939261200f92849190601319820190601401603484013781015f838201520301601f198101835282611ac3565b3b1561234c57606460405162461bcd60e51b815260206004820152601860248201527f6e6f7420616e204549502d373730322064656c656761746500000000000000006044820152fd5b606460405162461bcd60e51b815260206004820152601260248201527f73656e64657220686173206e6f20636f646500000000000000000000000000006044820152fd5b5050505f90565b9290602090959492958651936001600160a01b0360e081875116966123ca6123c26040870187612052565b908d8c6127a3565b015116915f9215988961256b575b915f91612428846110486001600160a01b03899751511697604051998a930151888401957f19822f7c0000000000000000000000000000000000000000000000000000000087526024850161267f565b8285875193f15f519260203d03612563575b604052156124aa57509461244d57505050565b61245691612608565b1561245e5750565b60849060405190631101335b60e11b8252600482015260406024820152601760448201527f41413231206469646e2774207061792070726566756e640000000000000000006064820152fd5b84903b6124fd5760849060405190631101335b60e11b8252600482015260406024820152601960448201527f41413230206163636f756e74206e6f74206465706c6f796564000000000000006064820152fd5b612505611ef5565b906105236040519283926365c8fd4d60e01b8452600484015260606024840152600d60648401527f4141323320726576657274656400000000000000000000000000000000000000608484015260a0604484015260a4830190611c78565b5f915061243a565b925083915f91878352828452604083205487811184146125975750612428835b959294505091506123d8565b61242890880361258b565b6001600160a01b03165f52600160205260405f206001600160c01b038260401c165f5260205267ffffffffffffffff60405f20918254926125e284611d26565b9055161490565b90619c40820181111561260257606491600a9103020490565b50505f90565b6001600160a01b03165f525f60205260405f2090815481811061239057039055600190565b9035601e198236030181121561167357016020813591019167ffffffffffffffff821161167357813603831361167357565b908060209392818452848401375f828201840152601f01601f1916010190565b61275760409295949395606083526001600160a01b0361269e82611b5d565b166060840152602081013560808401526127446127386126f86126d96126c68886018661262d565b61012060a08a015261018089019161265f565b6126e6606086018661262d565b888303605f190160c08a01529061265f565b608084013560e087015260a084013561010087015260c084013561012087015261272560e085018561262d565b878303605f19016101408901529061265f565b9161010081019061262d565b848303605f19016101608601529061265f565b9460208201520152565b9060021161279e57356bffffffffffffffffffffffff19167f77020000000000000000000000000000000000000000000000000000000000001490565b505f90565b929190915f90806127b6575b5050505050565b6001600160a01b0384515116946127cd8285612761565b612a9457853b612a4857601482106129fc578260206001600160a01b036127f2611c9c565b16604088510151604051809481937f570e1a36000000000000000000000000000000000000000000000000000000008352856004840152826128398c8b602484019161265f565b0393f19081156129f15784916129af575b506001600160a01b0381168015612963578703612917573b156128cb57506014116106a3577fd51a9c61267aa6196961883ecf5ff2da6619c37dac0fa92122513fb32c032d2d9160409150356001600160a01b0360e0602086015195510151166001600160a01b0383519260601c1682526020820152a35f808080806127af565b60849060405190631101335b60e11b8252600482015260406024820152602060448201527f4141313520696e6974436f6465206d757374206372656174652073656e6465726064820152fd5b60848260405190631101335b60e11b8252600482015260406024820152602060448201527f4141313420696e6974436f6465206d7573742072657475726e2073656e6465726064820152fd5b60848360405190631101335b60e11b8252600482015260406024820152601b60448201527f4141313320696e6974436f6465206661696c6564206f72204f4f4700000000006064820152fd5b90506020813d6020116129e9575b816129ca60209383611ac3565b8101031261069957516001600160a01b0381168103610699575f61284a565b3d91506129bd565b6040513d86823e3d90fd5b60849060405190631101335b60e11b8252600482015260406024820152601760448201527f4141393920696e6974436f646520746f6f20736d616c6c0000000000000000006064820152fd5b60849060405190631101335b60e11b8252600482015260406024820152601f60448201527f414131302073656e64657220616c726561647920636f6e7374727563746564006064820152fd5b5091905060148211612aa7575b50505050565b60406001600160a01b03612ab9611c9c565b1693510151908260141161167357833b15611673575f8094612b2096604051978896879586937fc09ad0d90000000000000000000000000000000000000000000000000000000085526004850152604060248501526014604485019260131901910161265f565b0393f18015611d1b57612b36575b808080612aa1565b5f612b4091611ac3565b5f612b2e565b60ff8114612ba55760ff811690601f8211612b7d5760405191612b6a604084611ac3565b6020808452838101919036833783525290565b7fb3512b0c000000000000000000000000000000000000000000000000000000005f5260045ffd5b506040515f6002548060011c9160018216918215612c7e575b602084108314612c6a578385528492908115612c4b5750600114612bec575b612be992500382611ac3565b90565b5060025f90815290917f405787fa12a823e0f2b7631cc41b3ba8828b3321ca811111fa75cd3aa3bb5ace5b818310612c2f575050906020612be992820101612bdd565b6020919350806001915483858801015201910190918392612c17565b60209250612be994915060ff191682840152151560051b820101612bdd565b634e487b7160e01b5f52602260045260245ffd5b92607f1692612bbe565b60ff8114612cac5760ff811690601f8211612b7d5760405191612b6a604084611ac3565b506040515f6003548060011c9160018216918215612d4e575b602084108314612c6a578385528492908115612c4b5750600114612cef57612be992500382611ac3565b5060035f90815290917fc2575a0e9e593c00f959f8c92f12db2869c3395a3b0502d05e2516446f71f85b5b818310612d32575050906020612be992820101612bdd565b6020919350806001915483858801015201910190918392612d1a565b92607f1692612cc556fea2646970667358221220eec711e0a4d147a7f249b58b04549c3098faf9218d19b28a936736eacfc0de6e64736f6c634300081c0033","linkReferences":{}},"methodIdentifiers":{"_accountValidation(uint256,(address,uint256,bytes,bytes,bytes32,uint256,bytes32,bytes,bytes),((address,uint256,uint256,uint256,uint256,uint256,uint256,address,uint256,uint256),bytes32,uint256,uint256,uint256))":"69683cfa","_paymasterValidation(uint256,(address,uint256,bytes,bytes,bytes32,uint256,bytes32,bytes,bytes),((address,uint256,uint256,uint256,uint256,uint256,uint256,address,uint256,uint256),bytes32,uint256,uint256,uint256))":"21e60b37","_validatePrepayment(uint256,(address,uint256,bytes,bytes,bytes32,uint256,bytes32,bytes,bytes),((address,uint256,uint256,uint256,uint256,uint256,uint256,address,uint256,uint256),bytes32,uint256,uint256,uint256),bool)":"c579f76b","addStake(uint32)":"0396cb60","balanceOf(address)":"70a08231","delegateAndRevert(address,bytes)":"850aaf62","depositTo(address)":"b760faf9","eip712Domain()":"84b0196e","getDepositInfo(address)":"5287ce12","getDomainSeparatorV4()":"13c65a6e","getNonce(address,uint192)":"35567e1a","getPackedUserOpTypeHash()":"154e58dc","getUserOpHash((address,uint256,bytes,bytes,bytes32,uint256,bytes32,bytes,bytes))":"22cdde4c","incrementNonce(uint192)":"0bd28e3b","innerHandleOp(bytes,((address,uint256,uint256,uint256,uint256,uint256,uint256,address,uint256,uint256),bytes32,uint256,uint256,uint256),bytes,uint256)":"0da82661","nonceSequenceNumber(address,uint192)":"1b2e01b8","senderCreator()":"09ccb880","unlockStake()":"bb9fe6bf","withdrawStake(address)":"c23a5cea","withdrawTo(address,uint256)":"205c2878"},"id":27}