{"abi":[{"type":"constructor","inputs":[],"stateMutability":"nonpayable"},{"type":"function","name":"simulateEntryPoint","inputs":[{"name":"ep","type":"address","internalType":"address payable"},{"name":"data","type":"bytes[]","internalType":"bytes[]"}],"outputs":[{"name":"","type":"bytes[]","internalType":"bytes[]"}],"stateMutability":"nonpayable"},{"type":"event","name":"PimlicoSimulationV7Deployed","inputs":[],"anonymous":false}],"bytecode":{"object":"0x6080806040523460a757614efc8181016001600160401b038111838210176091578291610458833903906000f08015608557600080546001600160a01b0319166001600160a01b0392909216919091178155604051907fdbcc4f7de25a77d8f29bb7bf3bdd025113f28c19a292a93e6fb38bb2d0a0d12a9080a16103ab90816100ad8239f35b6040513d6000823e3d90fd5b634e487b7160e01b600052604160045260246000fd5b600080fdfe6080604052600436101561001257600080fd5b60003560e01c63c18f52261461002757600080fd5b346102b55760403660031901126102b55760043573ffffffffffffffffffffffffffffffffffffffff81168091036102b55760243567ffffffffffffffff81116102b557366023820112156102b5578060040135610084816102f2565b9161009260405193846102d0565b8183526024602084019260051b820101903682116102b55760248101925b82841061023d57845185876100c4836102f2565b926100d260405194856102d0565b8084526100e1601f19916102f2565b0160005b81811061022c57505060005b82518110156101c457600190606060008061016f73ffffffffffffffffffffffffffffffffffffffff82541661017d61012a878b61034b565b5160405193849160208301947f850aaf62000000000000000000000000000000000000000000000000000000008652602484015260406044840152606483019061030a565b03601f1981018452836102d0565b82885a935193f1156101a6575b610194828761034b565b5261019f818661034b565b50016100f1565b503d604051906020818301016040528082526000602083013e61018a565b836040518091602082016020835281518091526040830190602060408260051b8601019301916000905b8282106101fd57505050500390f35b9193600191939550602061021c8192603f198a8203018652885161030a565b96019201920185949391926101ee565b8060606020809388010152016100e5565b833567ffffffffffffffff81116102b5578201366043820112156102b55760248101359167ffffffffffffffff83116102ba57604051610287601f8501601f1916602001826102d0565b83815236604484860101116102b55760006020858196604483970183860137830101528152019301926100b0565b600080fd5b634e487b7160e01b600052604160045260246000fd5b90601f8019910116810190811067ffffffffffffffff8211176102ba57604052565b67ffffffffffffffff81116102ba5760051b60200190565b919082519283825260005b848110610336575050826000602080949584010152601f8019910116010190565b80602080928401015182828601015201610315565b805182101561035f5760209160051b010190565b634e487b7160e01b600052603260045260246000fdfea26469706673582212201f2cdc23498eeab0bce8c746a377c81795c1aa82a9c0a9a41ceb48e2cb69dcbd64736f6c634300081c003360c080604052346101005760016002556101948181016001600160401b038111838210176100ea578291614d68833903906000f080156100de576080523060a052610048610105565b60008152602081019060008252806020610060610105565b600081520152600380546001600160a01b03191690555160045551600555604051614c4390816101258239608051816141aa015260a051818181612ab1015281816132ef0152818161334b01528181613535015281816135f20152818161364d015281816137600152818161381d01528181613878015261398b0152f35b6040513d6000823e3d90fd5b634e487b7160e01b600052604160045260246000fd5b600080fd5b60408051919082016001600160401b038111838210176100ea5760405256fe60806040526004361015610023575b361561001957600080fd5b610021612baf565b005b60003560e01c80630396cb60146101c357806303d1dcaf146101be5780630bd28e3b146101b95780630da82661146101b45780630dbfc6bd146101af5780631b2e01b8146101aa578063205c2878146101a557806321e60b37146101a057806322cdde4c1461019b578063263934db1461019657806330ec25d11461019157806335567e1a1461018c57806344403473146101875780635287ce121461018257806370a082311461017d5780637472949c1461017857806376ad61231461017357806397b2dcb91461016e578063b760faf914610169578063bb9fe6bf14610164578063c23a5cea1461015f578063c3bce0091461015a578063c579f76b14610155578063f7e426e814610150578063fc7e286d1461014b5763fe2171cb0361000e57611926565b611898565b61185f565b6115cf565b611598565b611471565b61134a565b61131f565b611125565b6110ec565b6110cc565b61108e565b610f7d565b610f37565b610e65565b610de7565b610cd0565b610c9f565b610ba2565b610aaa565b610a49565b6109cb565b61081d565b610593565b6104f6565b60203660031901126103b95760043563ffffffff8116908181036103b9576103b47fa5ae833d0bb1dcd632d98a8b70973e8516812898e19bf27b70071ebc8dc52c019161039661028461027461022c336001600160a01b03166000526000602052604060002090565b96610238811515611976565b61026560018901549161025e6102558463ffffffff9060781c1690565b63ffffffff1690565b11156119c1565b60081c6001600160701b031690565b6001600160701b03349116611a3f565b94610290861515611a4c565b6102a36001600160701b03871115611a97565b546102ac61069d565b908152600160208201526001600160701b038616604082015263ffffffff83166060820152600060808201526102f5336001600160a01b03166000526000602052604060002090565b81518155602082015160019091018054604084015160608501516080909501517fffffffffffffff0000000000000000000000000000000000000000000000000090921660ff941515949094169390931760089390931b6effffffffffffffffffffffffffff00169290921760789390931b72ffffffff000000000000000000000000000000169290921760989190911b65ffffffffffff60981b16179055565b6040805194855263ffffffff90911660208501523393918291820190565b0390a2005b600080fd5b9181601f840112156103b95782359167ffffffffffffffff83116103b9576020808501948460051b0101116103b957565b6001600160a01b038116036103b957565b359061040b826103ef565b565b60c06003198201126103b95760043567ffffffffffffffff81116103b95781610438916004016103be565b929092916024359067ffffffffffffffff82116103b95760609082900360031901126103b9576004019060443561046e816103ef565b90606435906084359060a43590565b60005b8381106104905750506000910152565b8181015183820152602001610480565b906020916104b98151809281855285808601910161047d565b601f01601f1916010190565b608060406104f3936020845280516020850152602081015115158285015201519160608082015201906104a0565b90565b346103b95761057961056d61055661050d3661040d565b969194909561051d949394611ae2565b50610550610529611b03565b61053e6105368780611b73565b825190612c03565b6105488680611b73565b905a91612e5e565b50613139565b6105686105638280611b73565b6131fe565b613291565b604051918291826104c5565b0390f35b602435906001600160c01b03821682036103b957565b346103b95760203660031901126103b9576004356001600160c01b03811681036103b9576105e1903360005260016020526040600020906001600160c01b0316600052602052604060002090565b6105eb8154611b89565b9055005b634e487b7160e01b600052604160045260246000fd5b60a0810190811067ffffffffffffffff82111761062157604052565b6105ef565b6060810190811067ffffffffffffffff82111761062157604052565b610140810190811067ffffffffffffffff82111761062157604052565b6040810190811067ffffffffffffffff82111761062157604052565b90601f8019910116810190811067ffffffffffffffff82111761062157604052565b6040519061040b60a08361067b565b6040519061040b6101408361067b565b6040519061040b6101008361067b565b6040519061040b60408361067b565b6040519061040b60608361067b565b6040519061040b6101208361067b565b67ffffffffffffffff811161062157601f01601f191660200190565b929192610722826106fa565b91610730604051938461067b565b8294818452818301116103b9578281602093846000960137010152565b9080601f830112156103b9578160206104f393359101610716565b60431901906101c082126103b95760405161078281610605565b6101408193126103b9576107946106ac565b61079e6044610400565b81526064356020820152608435604082015260a435606082015260c435608082015260e43560a08201526101043560c08201526107dc610124610400565b60e0820152610144356101008201526101643561012082015281526101843560208201526101a43560408201526101c435606082015260806101e435910152565b346103b9576102203660031901126103b95760043567ffffffffffffffff81116103b95761084f90369060040161074d565b3660231901906101c082126103b9576101406040519261086e84610605565b126103b95761087b6106ac565b6108856024610400565b815260443560208201526064356040820152608435606082015260a435608082015260c43560a082015260e43560c08201526108c2610104610400565b60e0820152610124356101008201526101443561012082015282526101643560208301526101843560408301526101a43560608301526101c43560808301526101e4359067ffffffffffffffff82116103b95760409261092961093493369060040161074d565b906102043592611ba9565b82519182526020820152f35b60206003198201126103b9576004359067ffffffffffffffff82116103b95761096b916004016103be565b9091565b9061010060e06104f393805184526020810151602085015260408101516040850152606081015160608501526080810151608085015260a081015160a085015260c0810151151560c08501520151918160e082015201906104a0565b346103b9576109e26109dc36610940565b90611dc2565b6040518091602082016020835281518091526040830190602060408260051b8601019301916000905b828210610a1a57505050500390f35b91936001919395506020610a398192603f198a8203018652885161096f565b9601920192018594939192610a0b565b346103b95760403660031901126103b9576020610aa1600435610a6b816103ef565b6001600160a01b03610a7b61057d565b9116600052600183526040600020906001600160c01b0316600052602052604060002090565b54604051908152f35b346103b95760403660031901126103b957600435610ac7816103ef565b602435336000526000602052604060002091825490818311610b4f5760008080856001600160a01b03829589610b00846100219a611f6c565b9055604080516001600160a01b03831681526020810185905233917fd1c19fbcd4551a5edfb66d43d2e337c04837afda3482b42bdf569a8fccdae5fb91a2165af1610b49611f79565b50611fa9565b606460405162461bcd60e51b815260206004820152601960248201527f576974686472617720616d6f756e7420746f6f206c61726765000000000000006044820152fd5b90816101209103126103b95790565b346103b9576102003660031901126103b95760243560043567ffffffffffffffff82116103b957610bda610579923690600401610b93565b90610be436610768565b600092815192610bf48483612c03565b610bfd82611ff4565b60208401526001600160a01b0360e0610c3786610100604082015160608301510160808301510160a08301510160c0830151019101510290565b95015116610c5f575b6040805160008082526020820188905291810191909152806060810188565b610c699450613d20565b905038808080610c40565b60206003198201126103b9576004359067ffffffffffffffff82116103b9576104f391600401610b93565b346103b9576020610cb7610cb236610c74565b611ff4565b604051908152f35b9060206104f392818152019061096f565b346103b957610cfc610ce136610940565b809291610cec611cc2565b50610cf682611d17565b50611dc2565b6000198201918211610d2a5761057991610d1591611dae565b5160405191829160208352602083019061096f565b611a0c565b906104f39060e06080610d81818651610140865280516101408701526020810151610160870152604081015161018087015260608101516101a0870152015160a06101c08601526101e08501906104a0565b60208087015180518683015201516040850152946040810151805160608601526020015160808501526060810151805160a08601526020015160c0850152015191019080516001600160a01b031682526020908101518051828401520151604090910152565b346103b957610dfe610df836610940565b90612185565b6040518091602082016020835281518091526040830190602060408260051b8601019301916000905b828210610e3657505050500390f35b91936001919395506020610e558192603f198a82030186528851610d2f565b9601920192018594939192610e27565b346103b95760403660031901126103b9576020600435610e84816103ef565b6001600160a01b03610e9461057d565b911660005260018252610ebe816040600020906001600160c01b0316600052602052604060002090565b546040805192901b67ffffffffffffffff1916178152f35b60606003198201126103b957600435610eee816103ef565b9160243567ffffffffffffffff81116103b957826023820112156103b95780600401359267ffffffffffffffff84116103b957602484830101116103b957602401919060443590565b346103b95760008080610f4936610ed6565b939181604094929451948592833781018381520393f1610f67611f79565b9015610f6f57005b80519081156103b957602001fd5b346103b95760203660031901126103b9576001600160a01b03600435610fa2816103ef565b60006080604051610fb281610605565b8281528260208201528260408201528260608201520152166000526000602052610579604060002061103a65ffffffffffff600160405193610ff385610605565b80548552015460ff8116151560208501526001600160701b038160081c16604085015263ffffffff8160781c16606085015260981c16608083019065ffffffffffff169052565b60405191829182919091608065ffffffffffff8160a0840195805185526020810151151560208601526001600160701b03604082015116604086015263ffffffff6060820151166060860152015116910152565b346103b95760203660031901126103b9576001600160a01b036004356110b3816103ef565b1660005260006020526020604060002054604051908152f35b346103b95761057961056d6110e03661040d565b95949094939193612272565b346103b95761057961056d6111136111033661040d565b9691949095610550949394611ae2565b6111206105638280611b73565b6135b2565b346103b95760603660031901126103b95760043567ffffffffffffffff81116103b957611156903690600401610b93565b602435611162816103ef565b60443567ffffffffffffffff81116103b95761118290369060040161074d565b9161118b611cc2565b5060009160028054146113105761057993600280556111a8611b03565b6111b1846131fe565b6111bb8185612773565b91955a6060850151856111d160608501856124d5565b8c60038211611308575b7fffffffff0000000000000000000000000000000000000000000000000000000016638dd7712f60e01b036112ef57505061123f611253611258956020840151604051938492638dd7712f60e01b6020850152604060248501526064840190612d2e565b90604483015203601f19810183528261067b565b611ba9565b9390975b80956060976001600160a01b0381166112c6575b5050509560806112ab96970151976112866106bc565b988952602089015260408801526060870152608086015260a0850152151560c0840152565b60e08201526112ba6001600255565b60405191829182610cbf565b6112ab98508280949850602083519301915af19560806112e4611f79565b979591979638611270565b611300955090611253913691610716565b93909761125c565b5081356111db565b600483633ee5aeb560e01b8152fd5b60203660031901126103b95761002160043561133a816103ef565b6122ff565b60009103126103b957565b346103b95760003660031901126103b9573360005260006020526001604060002001805463ffffffff8160781c161561142d576113b66113a86102558361139c6113976113f09660ff1690565b612340565b60781c63ffffffff1690565b65ffffffffffff421661238b565b82547fffffffffffffff000000000000ffffffffffffffffffffffffffffffffffff001665ffffffffffff60981b609883901b1617909255565b60405165ffffffffffff909116815233907ffa9b3c14cc825c412c9ed81b3ba365a5b459439403f18829e572ed53a4180f0a9080602081016103b4565b606460405162461bcd60e51b815260206004820152600a60248201527f6e6f74207374616b6564000000000000000000000000000000000000000000006044820152fd5b346103b95760203660031901126103b9576100216000808080600435611496816103ef565b6001600160a01b0360016114bd336001600160a01b03166000526000602052604060002090565b019161154b83549361152365ffffffffffff61150f6114f56114e9896001600160701b039060081c1690565b6001600160701b031690565b976115018915156123a9565b60981c65ffffffffffff1690565b1661151b8115156123f4565b42101561243f565b80547fffffffffffffff000000000000000000000000000000000000000000000000ff169055565b604080516001600160a01b03831681526020810185905233917fb7c918e0e249f999e965cafeb6c664271b3f4317d296461500e71da39f0cbda391a2165af1611592611f79565b5061248a565b346103b9576105796115b16115ac36610c74565b6125ad565b604051918291602083526020830190610d2f565b801515036103b957565b346103b9576102203660031901126103b95760043560243567ffffffffffffffff81116103b957611604903690600401610b93565b9061160e36610768565b610204359061161c826115c5565b6000935a82519361162d8584612c03565b61163683611ff4565b60208501526040850151956116826effffffffffffffffffffffffffffff8860c08901511760608901511760808901511760a08901511761010089015117610120890151171115612712565b6116ad86610100604082015160608301510160808301510160a08301510160c0830151019101510290565b906116bb8883888885612fba565b976116e26116de6116d38a516001600160a01b031690565b60208b01519061408a565b1590565b61180a575a8503116117b8576060926001600160a01b0361170e60e05a9a01516001600160a01b031690565b16151590816117b0575b50611779575b509360806117559460a061175095610579999561175c99604087015260608601525a9003910135019101525a90611f6c565b61275d565b6064900490565b604051938493846040919493926060820195825260208201520152565b8198506105799692508460a06117509561179e899561175c9a6117559a608097613d20565b9c90969a50949850955050945061171e565b905038611718565b60408051631101335b60e11b815260048101929092526024820152601e60448201527f41413236206f76657220766572696669636174696f6e4761734c696d69740000606482015280608481015b0390fd5b61180682604051918291631101335b60e11b835260048301608091815260406020820152601a60408201527f4141323520696e76616c6964206163636f756e74206e6f6e636500000000000060608201520190565b346103b95761187961187036610ed6565b92919091612a5a565b90610579604051928392151583526040602084015260408301906104a0565b346103b95760203660031901126103b9576001600160a01b036004356118bd816103ef565b16600052600060205265ffffffffffff604060002060018154910154908260405193849360a0850193855260ff8116151560208601526001600160701b03808260081c1616604086015263ffffffff808260781c1616606086015260981c161660808301520390f35b346103b95761194861193736610940565b8092916119426120fe565b50612185565b6000198201918211610d2a576105799161196191611dae565b51604051918291602083526020830190610d2f565b1561197d57565b606460405162461bcd60e51b815260206004820152601a60248201527f6d757374207370656369667920756e7374616b652064656c61790000000000006044820152fd5b156119c857565b606460405162461bcd60e51b815260206004820152601c60248201527f63616e6e6f7420646563726561736520756e7374616b652074696d65000000006044820152fd5b634e487b7160e01b600052601160045260246000fd5b906113888201809211610d2a57565b9060018201809211610d2a57565b91908201809211610d2a57565b15611a5357565b606460405162461bcd60e51b815260206004820152601260248201527f6e6f207374616b652073706563696669656400000000000000000000000000006044820152fd5b15611a9e57565b606460405162461bcd60e51b815260206004820152600e60248201527f7374616b65206f766572666c6f770000000000000000000000000000000000006044820152fd5b60405190611aef82610626565b606060408360008152600060208201520152565b60405190611b1082610605565b6000608083604051611b2181610642565b83815283602082015283604082015283606082015283838201528360a08201528360c08201528360e0820152836101008201528361012082015281528260208201528260408201528260608201520152565b90359061011e19813603018212156103b9570190565b6000198114610d2a5760010190565b9060206104f39281815201906104a0565b919091825190606082015191611bc2603f5a0260061c90565b61271060a083015185010111611c56578151611bef575b50505061096b925a900360808301510191613aeb565b916116de91611c08611c0d94516001600160a01b031690565b613a08565b611c1957388080611bd9565b611806611c24613a1a565b6040519182917f462c71b200000000000000000000000000000000000000000000000000000000835260048301611b98565b604051631101335b60e11b815280611806600482016080906000815260406020820152600f60408201527f41413935206f7574206f6620676173000000000000000000000000000000000060608201520190565b67ffffffffffffffff81116106215760051b60200190565b60405190610100820182811067ffffffffffffffff82111761062157604052606060e08360008152600060208201526000604082015260008382015260006080820152600060a0820152600060c08201520152565b90611d2182611caa565b611d2e604051918261067b565b8281528092611d3f601f1991611caa565b019060005b828110611d5057505050565b602090611d5b611cc2565b82828501015201611d44565b634e487b7160e01b600052603260045260246000fd5b90821015611d94576104f39160051b810190611b73565b611d67565b60405190611da860208361067b565b60008252565b8051821015611d945760209160051b010190565b611dcb82611d17565b9160005b818110611ddc5750505090565b611de7818385611d7d565b6020906000604051611df9848261067b565b52611e02611cc2565b5060006002805414611f3f5790611ef4600194939260028055611e23611b03565b92611e2d816131fe565b84611e388583612773565b929091935a9088606081015191611e5260608201826124d5565b8a60038211611f37575b7fffffffff0000000000000000000000000000000000000000000000000000000016638dd7712f60e01b03611f1f57505061125385638dd7712f60e01b9261123f611ebf9886015191604051958694850152604060248501526064840190612d2e565b93905b6080606098015198611ed26106bc565b998a52890152604088015285870152608086015260a0850152151560c0840152565b60e0820152611f036001600255565b611f0d8287611dae565b52611f188186611dae565b5001611dcf565b611f30965061125392503691610716565b9390611ec2565b508135611e5c565b80633ee5aeb560e01b60049252fd5b600319810191908211610d2a57565b600019810191908211610d2a57565b91908203918211610d2a57565b3d15611fa4573d90611f8a826106fa565b91611f98604051938461067b565b82523d6000602084013e565b606090565b15611fb057565b606460405162461bcd60e51b815260206004820152601260248201527f6661696c656420746f20776974686472617700000000000000000000000000006044820152fd5b60208101356120b661200960408401846124d5565b908160405191823720916120a861202360608601866124d5565b90816040519182372060c086013560a0870135608088013561205161204b60e08b018b6124d5565b90614c02565b936040519889976001600160a01b0360208a019c35168c94919260e096939998979491996001600160a01b0361010088019b168752602087015260408601526060850152608084015260a083015260c08201520152565b03601f19810183528261067b565b519020604080516020810192835230918101919091524660608201526120df81608081016120a8565b51902090565b604051906120f28261065f565b60006020838281520152565b6040519061210b82610605565b8160405161211881610605565b600081526000602082015260006040820152600060608201526060608082015281526121426120e5565b602082015261214f6120e5565b604082015261215c6120e5565b60608201526080604051916121708361065f565b6000835261217c6120e5565b60208401520152565b61218e82611caa565b9161219c604051938461067b565b808352601f196121ab82611caa565b0160005b8181106121f557505060005b8181106121c85750505090565b806121d96115ac6001938587611d7d565b6121e38287611dae565b526121ee8186611dae565b50016121bb565b6020906122006120fe565b828288010152016121af565b908092918237016000815290565b356104f3816103ef565b6040519061223360208361067b565b6000808352366020840137565b9061224a826106fa565b612257604051918261067b565b8281528092612268601f19916106fa565b0190602036910137565b9061228591969594939296610550611ae2565b6001600160a01b036122978680611b73565b6122c06020880135916122a9836103ef565b6122b1611b03565b906122bb816131fe565b612773565b50505016156122d2576104f3946137dd565b50505050506122df612224565b604051906122ec82610626565b6000825260006020830152604082015290565b7f2da466a7b24304f47e87fa2e1e5a81b9831ce54fec19055ce277ca2f39ba42c460206001600160a01b036123343485613ef7565b936040519485521692a2565b1561234757565b606460405162461bcd60e51b815260206004820152601160248201527f616c726561647920756e7374616b696e670000000000000000000000000000006044820152fd5b9065ffffffffffff8091169116019065ffffffffffff8211610d2a57565b156123b057565b606460405162461bcd60e51b815260206004820152601460248201527f4e6f207374616b6520746f2077697468647261770000000000000000000000006044820152fd5b156123fb57565b606460405162461bcd60e51b815260206004820152601d60248201527f6d7573742063616c6c20756e6c6f636b5374616b6528292066697273740000006044820152fd5b1561244657565b606460405162461bcd60e51b815260206004820152601b60248201527f5374616b65207769746864726177616c206973206e6f742064756500000000006044820152fd5b1561249157565b606460405162461bcd60e51b815260206004820152601860248201527f6661696c656420746f207769746864726177207374616b6500000000000000006044820152fd5b903590601e19813603018212156103b9570180359067ffffffffffffffff82116103b9576020019181360383136103b957565b906014116103b95790601490565b90929192836034116103b95783116103b957603401916033190190565b356bffffffffffffffffffffffff19811692919060148210612553575050565b6bffffffffffffffffffffffff1960149290920360031b82901b16169150565b604051906125808261065f565b6003546001600160a01b0316825260405160208361259d8361065f565b6004548352600554828401520152565b6125b56120fe565b506125be611b03565b906125c8816131fe565b6125d28282612773565b509190926125e08385613f1f565b6125fd6125f860e0835101516001600160a01b031690565b614047565b9161262b6126176125f884516001600160a01b0390511690565b916126206120e5565b5060408101906124d5565b90601482106127065761264d612647612653936125f893612508565b90612533565b60601c90565b916001600160a01b03861694608082015196606060408401519301519261267861069d565b9889526020890152604088015260608701526080860152612697612573565b93801515806126fb575b6126c9575b506126af61069d565b948552602085015260408401526060830152608082015290565b9093506126d581614047565b6126ef6126e06106cc565b6001600160a01b039093168352565b602082015292386126a6565b5060018114156126a1565b50506126536000614047565b1561271957565b606460405162461bcd60e51b815260206004820152601860248201527f41413934206761732076616c756573206f766572666c6f7700000000000000006044820152fd5b90607382029180830460731490151715610d2a57565b90916000915a938051916127878382612c03565b61279081611ff4565b60208301526040830151956127dc6effffffffffffffffffffffffffffff8860c08701511760608701511760808701511760a08701511761010087015117610120870151171115612712565b61280784610100604082015160608301510160808301510160a08301510160c0830151019101510290565b612815888286866000612fba565b976128386116de61282d88516001600160a01b031690565b60208901519061408a565b61292f575a8303116128db576060906001600160a01b0361286460e05a9801516001600160a01b031690565b161515806128d3575b6128a0575b6117509360a06104f39794879460809460406117559a015260608601525a9003910135019101525a90611f6c565b965050928260808360a06104f3976128c18b61175599611750996000613d20565b9b909598509350949750509350612872565b50600161286d565b604051631101335b60e11b815280611806600060048301608091815260406020820152601e60408201527f41413236206f76657220766572696669636174696f6e4761734c696d6974000060608201520190565b604051631101335b60e11b815280611806600060048301608091815260406020820152601a60408201527f4141323520696e76616c6964206163636f756e74206e6f6e636500000000000060608201520190565b908060209392818452848401376000828201840152601f01601f1916010190565b6040906001600160a01b036104f395931681528160208201520191612983565b6040513d6000823e3d90fd5b908151811015611d94570160200190565b81601f820112156103b95780516129f7816106fa565b92612a05604051948561067b565b818452602082840101116103b9576104f3916020808501910161047d565b9190916040818403126103b9578051612a3b816115c5565b92602082015167ffffffffffffffff81116103b9576104f392016129e1565b91926000936001600160a01b036060941691823b156103b957612ada93600080946040518097819682957f850aaf620000000000000000000000000000000000000000000000000000000084526001600160a01b037f000000000000000000000000000000000000000000000000000000000000000016600485016129a4565b0393f19081612b94575b5061096b575050612af3611f79565b906004825110612b8557612b0f612b0a8351611f4e565b612240565b60045b8351811015612b6f5780612b51612b2b600193876129d0565b517fff000000000000000000000000000000000000000000000000000000000000001690565b612b68612b5d83611f4e565b9160001a91856129d0565b5301612b12565b5061096b91925060208082518301019101612a23565b9050612b8f612224565b600091565b80612ba36000612ba99361067b565b8061133f565b38612ae4565b61040b336122ff565b15612bbf57565b606460405162461bcd60e51b815260206004820152601d60248201527f4141393320696e76616c6964207061796d6173746572416e64446174610000006044820152fd5b612c9a90612c20612c138261221a565b6001600160a01b03168452565b60208101356020840152612c4d6080820135906fffffffffffffffffffffffffffffffff8260801c921690565b6060850152604084015260a081013560c0840152612c8460c0820135906fffffffffffffffffffffffffffffffff8260801c921690565b61010085015261012084015260e08101906124d5565b908115612cd657612cbe8260e092612cb9603461040b97961015612bb8565b6140dc565b60a085015260808401526001600160a01b0316910152565b505060a081600060e0819401528260808201520152565b908160209103126103b9575190565b9035601e19823603018112156103b957016020813591019167ffffffffffffffff82116103b95781360383136103b957565b6104f391612d4c81612d3f84610400565b6001600160a01b03169052565b60208201356020820152612de2612dd6612d9d612d82612d6f6040870187612cfc565b6101206040880152610120870191612983565b612d8f6060870187612cfc565b908683036060880152612983565b6080850135608085015260a085013560a085015260c085013560c0850152612dc860e0860186612cfc565b9085830360e0870152612983565b92610100810190612cfc565b91610100818503910152612983565b612e0960409295949395606083526060830190612d2e565b9460208201520152565b60a0906104f39392815260606020820152600d60608201527f4141323320726576657274656400000000000000000000000000000000000000608082015281604082015201906104a0565b929091612ee16020600095855193612eab60e0612e8287516001600160a01b031690565b96612e9d8a8c612e9560408901896124d5565b92909161413a565b01516001600160a01b031690565b91886001600160a01b03819416159889612f7f575b85015191604051968795869485936306608bdf60e21b855260048501612df1565b03926001600160a01b03881690f1859181612f4e575b50612f225784612f05613a1a565b906118066040519283926365c8fd4d60e01b845260048401612e13565b939192612f2d575050565b612f4a906001600160a01b03166000526000602052604060002090565b5050565b612f7191925060203d602011612f78575b612f69818361067b565b810190612ced565b9038612ef7565b503d612f5f565b9350612f9e876001600160a01b03166000526000602052604060002090565b548015612fb1575084815b949050612ec0565b85908203612fa9565b9492919390602061302a91865193612ff160e0612fde87516001600160a01b031690565b96612e9d8b8d612e9560408901896124d5565b916001600160a01b03600093161598896130f7575b84600091015191604051968795869485936306608bdf60e21b855260048501612df1565b03926001600160a01b03881690f1600091816130d6575b5061304f5785612f05613a1a565b94929361305b57505050565b613078906001600160a01b03166000526000602052604060002090565b918254908183116130895750039055565b60408051631101335b60e11b815260048101929092526024820152601760448201527f41413231206469646e2774207061792070726566756e640000000000000000006064820152608490fd5b6130f091925060203d602011612f7857612f69818361067b565b9038613041565b9250613116866001600160a01b03166000526000602052604060002090565b548781111561312e5750600084815b94915050613006565b846000918903613125565b9160005b828110156131f85761314d611b03565b6000908260051b860135605e19873603018112156131f45790613188600194939288019161317e6105638480611b73565b6122bb8380611b73565b50505060208101906131a861319c8361221a565b6001600160a01b031690565b156131ec57826131c66131bb829461221a565b9260408101906124d5565b91906131d76040518094819361220c565b03925af1506131e4611f79565b505b0161313d565b5050506131e6565b8280fd5b50915050565b6132319061320f60408201826124d5565b9161322981359161321f836103ef565b60e08101906124d5565b9390926143db565b805161323a5750565b61180690604051918291631101335b60e11b8352600060048401526040602484015260448301906104a0565b93929161328c906001600160a01b036040931686526060602087015260608601906104a0565b930152565b9394909461329d611ae2565b5060009280156134f6576132e293506132b4611d99565b509160006132c45a886002614776565b5a906040519687928392631efc84dd60e31b84528c60048501613266565b0381836001600160a01b037f0000000000000000000000000000000000000000000000000000000000000000165af191821561344a5760009485936134d5575b508294809381156134b2575050613340909592919394955b85611a3f565b806001600160a01b037f000000000000000000000000000000000000000000000000000000000000000016965b846133788885611f6c565b10613488575a61338788611a22565b1161344f57918695939189959360008c8b6133ba6133b16133ab886133da9f611a3f565b60011c90565b809b6002614776565b835a936040519e8f9586948593631efc84dd60e31b855260048501613266565b03925af198891561344a57600090819a613424575b501561340f5750505061340184611f5d565b95915b93909294959161336d565b9396509461341e919750611a31565b94613404565b90613442929a503d8091833e61343a818361067b565b810190612a23565b9890386133ef565b6129c4565b7fe2c4d0be0000000000000000000000000000000000000000000000000000000060005260048290526024879052604483905260646000fd5b9650965050919550506134aa915061349e6106db565b93845215156020840152565b604082015290565b965096505095505050506134aa6134c76106db565b600081529215156020840152565b9092506134ec91943d8091833e61343a818361067b565b9390939138613322565b50613528915a918461350a5a896002614776565b5a906040519687928392631efc84dd60e31b84528d60048501613266565b0381836001600160a01b037f0000000000000000000000000000000000000000000000000000000000000000165af193841561344a5785809561358e575b5050839461357681945a90611f6c565b9481156134b25750506133409095929193949561333a565b909194506135a79295503d8091833e61343a818361067b565b939093923880613566565b939490946135be611ae2565b50600092801561373f576135e593506135d5611d99565b509160006132c45a886003614776565b0381836001600160a01b037f0000000000000000000000000000000000000000000000000000000000000000165af191821561344a57600094859361371e575b508294809381156134b25750506136429095929193949585611a3f565b806001600160a01b037f000000000000000000000000000000000000000000000000000000000000000016965b8461367a8885611f6c565b10613488575a61368988611a22565b1161344f57918695939189959360008c8b6133ba6136ad6133ab886136b69f611a3f565b809b6003614776565b03925af198891561344a57600090819a613700575b50156136eb575050506136dd84611f5d565b95915b93909294959161366f565b939650946136fa919750611a31565b946136e0565b90613716929a503d8091833e61343a818361067b565b9890386136cb565b90925061373591943d8091833e61343a818361067b565b9390939138613625565b50613753915a918461350a5a896003614776565b0381836001600160a01b037f0000000000000000000000000000000000000000000000000000000000000000165af193841561344a578580956137b9575b505083946137a181945a90611f6c565b9481156134b25750506136429095929193949561333a565b909194506137d29295503d8091833e61343a818361067b565b939093923880613791565b939490946137e9611ae2565b50600092801561396a576138109350613800611d99565b509160006132c45a886001614776565b0381836001600160a01b037f0000000000000000000000000000000000000000000000000000000000000000165af191821561344a576000948593613949575b508294809381156134b257505061386d9095929193949585611a3f565b806001600160a01b037f000000000000000000000000000000000000000000000000000000000000000016965b846138a58885611f6c565b10613488575a6138b488611a22565b1161344f57918695939189959360008c8b6133ba6138d86133ab886138e19f611a3f565b809b6001614776565b03925af198891561344a57600090819a61392b575b50156139165750505061390884611f5d565b95915b93909294959161389a565b93965094613925919750611a31565b9461390b565b90613941929a503d8091833e61343a818361067b565b9890386138f6565b90925061396091943d8091833e61343a818361067b565b9390939138613850565b5061397e915a918461350a5a896001614776565b0381836001600160a01b037f0000000000000000000000000000000000000000000000000000000000000000165af193841561344a578580956139e4575b505083946139cc81945a90611f6c565b9481156134b257505061386d9095929193949561333a565b909194506139fd9295503d8091833e61343a818361067b565b9390939238806139bc565b9060009283809360208451940192f190565b3d6108008111613a3f575b604051906020818301016040528082526000602083013e90565b50610800613a25565b634e487b7160e01b600052602160045260246000fd5b60031115613a6857565b613a48565b90949392946003811015613a6857606092613a959183526080602084015260808301906104a0565b9460408201520152565b9060a06104f3926000815260606020820152601460608201527f4141353020706f73744f70207265766572746564000000000000000000000000608082015281604082015201906104a0565b929091600092835a90865192613b00846149d7565b90613b1560e08601516001600160a01b031690565b6001600160a01b0381169081613bde57505050613b3984516001600160a01b031690565b945b5a8403019360a06060820151910151019360808901948551820390818111613bcd575b50509081029060408901958651838110600014613ba257505050509081613b8961040b959493613a5e565b505a9003905101905185613b9d8297614ad0565b614a01565b61040b9750613bc8929650839a9395506001949186613bc2920390613ef7565b50613a5e565b614a69565b6064919003600a0204013880613b5e565b96918051613bee575b5050613b3b565b90919850613bfb84613a5e565b5a9160a087015190803b15613ca057918591858381958e613c4e604051988997889687947f7c627b2100000000000000000000000000000000000000000000000000000000865202908660048601613a6d565b0393f19081613c8c575b50613c8157611806613c68613a1a565b6040519182916365c8fd4d60e01b835260048301613a9f565b5a9003963880613be7565b80612ba386613c9a9361067b565b38613c58565b8580fd5b91906040838203126103b957825167ffffffffffffffff81116103b957602091613ccf9185016129e1565b92015190565b60a0906104f39392815260606020820152600d60608201527f4141333320726576657274656400000000000000000000000000000000000000608082015281604082015201906104a0565b929390915a92815190613d3d60e08301516001600160a01b031690565b91613d5b836001600160a01b03166000526000602052604060002090565b8054898110613ea2576001600160a01b0360206080600097958d9795613dbd9d9e8a960390550151970151926040519a8b96879586937f52b7512c00000000000000000000000000000000000000000000000000000000855260048501612df1565b03931686f19384600091600096613e7b575b50613dfa5785613ddd613a1a565b906118066040519283926365c8fd4d60e01b845260048401613cd5565b9491925a900311613e085750565b60408051631101335b60e11b815260048101929092526024820152602760448201527f41413336206f766572207061796d6173746572566572696669636174696f6e4760648201527f61734c696d697400000000000000000000000000000000000000000000000000608482015260a490fd5b909550613e9b91503d806000833e613e93818361067b565b810190613ca4565b9438613dcf565b61180689604051918291631101335b60e11b835260048301608091815260406020820152601e60408201527f41413331207061796d6173746572206465706f73697420746f6f206c6f77000060608201520190565b6001600160a01b0316600052600060205260406000208054918201809211610d2a5781905590565b613f306001600160a01b0391614b13565b9116613ffb57613fa757613f4b6001600160a01b0391614b13565b5016613f5357565b604051631101335b60e11b815280611806600060048301608091815260406020820152601460408201527f41413334207369676e6174757265206572726f7200000000000000000000000060608201520190565b604051631101335b60e11b815280611806600060048301608091815260406020820152601760408201527f414132322065787069726564206f72206e6f742064756500000000000000000060608201520190565b6084604051631101335b60e11b81526000600482015260406024820152601460448201527f41413234207369676e6174757265206572726f720000000000000000000000006064820152fd5b906001600160a01b036140586120e5565b9216600052600060205263ffffffff6001604060002001546001600160701b038160081c16845260781c166020830152565b6001600160a01b0316600052600160205267ffffffffffffffff6140c88260401c6040600020906001600160c01b0316600052602052604060002090565b918254926140d584611b89565b9055161490565b9091826014116103b957813591836024116103b9576014810135936034116103b95760609290921c92608090811c9260240135901c90565b908160209103126103b957516104f3816103ef565b9160206104f3938181520191612983565b92909181614149575b50505050565b8251516001600160a01b031693843b61438e57604084510151602060405180927f570e1a360000000000000000000000000000000000000000000000000000000082528160008161419e8a8a60048401614129565b03926001600160a01b037f00000000000000000000000000000000000000000000000000000000000000001690f190811561344a5760009161435f575b506001600160a01b03811695861561430a576001600160a01b03168096036142b5573b15614268575061264d6126477fd51a9c61267aa6196961883ecf5ff2da6619c37dac0fa92122513fb32c032d2d9361423593612508565b602083810151935160e00151604080516001600160a01b039485168152939091169183019190915290a338808080614143565b60408051631101335b60e11b815260048101929092526024820152602060448201527f4141313520696e6974436f6465206d757374206372656174652073656e6465726064820152608490fd5b61180682604051918291631101335b60e11b835260048301608091815260406020820152602060408201527f4141313420696e6974436f6465206d7573742072657475726e2073656e64657260608201520190565b61180683604051918291631101335b60e11b835260048301608091815260406020820152601b60408201527f4141313320696e6974436f6465206661696c6564206f72204f4f47000000000060608201520190565b614381915060203d602011614387575b614379818361067b565b810190614114565b386141db565b503d61436f565b60408051631101335b60e11b815260048101929092526024820152601f60448201527f414131302073656e64657220616c726561647920636f6e7374727563746564006064820152608490fd5b50929192159081614490575b50614453576014811015614400575b50506104f3611d99565b6014116103b9573560601c3b156144185738806143f6565b60405161442660408261067b565b601b81527f41413330207061796d6173746572206e6f74206465706c6f7965640000000000602082015290565b505060405161446360408261067b565b601981527f41413230206163636f756e74206e6f74206465706c6f79656400000000000000602082015290565b90503b15386143e7565b610120813603126103b9576144ad6106ea565b906144b781610400565b825260208101356020830152604081013567ffffffffffffffff81116103b9576144e4903690830161074d565b6040830152606081013567ffffffffffffffff81116103b95761450a903690830161074d565b60608301526080810135608083015260a081013560a083015260c081013560c083015260e081013567ffffffffffffffff81116103b95761454e903690830161074d565b60e08301526101008101359067ffffffffffffffff82116103b9576145759136910161074d565b61010082015290565b60041115613a6857565b91926fffffffffffffffffffffffffffffffff196034959481936bffffffffffffffffffffffff199060601b1685521660148401521660248201526145d6825180936020868501910161047d565b010190565b80516001600160a01b031682526104f3916020820151602082015261010061465c61462c61461a604086015161012060408701526101208601906104a0565b606086015185820360608701526104a0565b6080850151608085015260a085015160a085015260c085015160c085015260e085015184820360e08601526104a0565b920151906101008184039101526104a0565b60806101a091610120815161468c8682516001600160a01b03169052565b602081015160208701526040810151604087015260608101516060870152838101518487015260a081015160a087015260c081015160c08701526146e060e082015160e08801906001600160a01b03169052565b61010081015161010087015201516101208501526020810151610140850152604081015161016085015260608101516101808501520151910152565b61474c61474161020093969594966000845261022060208501526102208401906145db565b95604083019061466e565b0152565b6102009061474c61474160009496959685845261022060208501526102208401906145db565b61477e611b03565b61479061478b8480611b73565b61449a565b6147998361457e565b600283146148f2576147aa8361457e565b6003831461486b575050806147c060019261457e565b1461480a5760405162461bcd60e51b815260206004820152600c60248201527f496e76616c6964206d6f646500000000000000000000000000000000000000006044820152606490fd5b806120a861483561482e61482360206104f3960161221a565b9360408101906124d5565b3691610716565b936040519485937f4440347300000000000000000000000000000000000000000000000000000000602086015260248501613266565b9150926fffffffffffffffffffffffffffffffff6148b26148ab614892866104f397611b73565b608001356fffffffffffffffffffffffffffffffff1690565b9260801b90565b91161760808201526120a86040519384927fc579f76b00000000000000000000000000000000000000000000000000000000602085015260248401614750565b9150926120a8906fffffffffffffffffffffffffffffffff198461497d61496f61492b61492561321f856104f39b611b73565b906140dc565b9291905060609060e08a01956034875151116149b3575b5060405196879460801b16906fffffffffffffffffffffffffffffffff198960801b169060208601614588565b03601f19810184528361067b565b526040519485937f21e60b370000000000000000000000000000000000000000000000000000000060208601526024850161471c565b6149d09192506149c961321f8261482e93611b73565b8091612516565b9038614942565b6101206101008201519101518082146149fd574801808210156149f8575090565b905090565b5090565b9190917f49628fd1471006c1482da88028e9ce4dbb080b815c9b0344d39e5a8e6ec1419f608060208301519251946001600160a01b038651169460206001600160a01b0360e089015116970151916040519283526000602084015260408301526060820152a4565b9060807f49628fd1471006c1482da88028e9ce4dbb080b815c9b0344d39e5a8e6ec1419f9160208401519351956001600160a01b038751169560206001600160a01b0360e08a015116980151926040519384521515602084015260408301526060820152a4565b60208101519051907f67b4fa9642f42120bf031f3051d1824b0fe25627945b27b8a6a65d5761d5482e6020806001600160a01b03855116940151604051908152a3565b8015614bf957600060408051614b2881610626565b828152826020820152015265ffffffffffff8160a01c168015614bec575b614bce90614bb5614b5d614b68614b5d8660d01c90565b65ffffffffffff1690565b92614b8d6001600160a01b03614b7c6106db565b971687906001600160a01b03169052565b614ba36020870194859065ffffffffffff169052565b65ffffffffffff166040860181905290565b4211908115614bd1575b5091516001600160a01b031690565b91565b51614be4915065ffffffffffff16614b5d565b421038614bbf565b5065ffffffffffff614b46565b50600090600090565b81604051918237209056fea264697066735822122074cf45715470c6b3a26b58ce016e8626fd29b09299bf9cabaa239791e28c2db264736f6c634300081c003360808060405234601557610179908161001b8239f35b600080fdfe6080600436101561000f57600080fd5b60003560e01c63570e1a361461002457600080fd5b3461013e57602036600319011261013e5760043567ffffffffffffffff811161013e573660238201121561013e57806004013567ffffffffffffffff811161013e57366024828401011161013e576000928160141161013a5760131982019167ffffffffffffffff831161012657600b8101601f19908116603f0116820167ffffffffffffffff8111838210176101125760246020959387600c819795829560405286845289840196603889018837830101525193013560601c5af19051901561010a575b60209073ffffffffffffffffffffffffffffffffffffffff60405191168152f35b5060006100e9565b602486634e487b7160e01b81526041600452fd5b602485634e487b7160e01b81526041600452fd5b8380fd5b600080fdfea26469706673582212209dffb155e295aac90dab6d90a7e1c0cbfa99a678d78a40c2d0529fc532d9723164736f6c634300081c0033","linkReferences":{}},"methodIdentifiers":{"simulateEntryPoint(address,bytes[])":"c18f5226"},"id":21}