{"abi":[{"type":"constructor","inputs":[],"stateMutability":"nonpayable"},{"type":"function","name":"simulateEntryPoint","inputs":[{"name":"ep","type":"address","internalType":"address payable"},{"name":"data","type":"bytes[]","internalType":"bytes[]"}],"outputs":[{"name":"","type":"bytes[]","internalType":"bytes[]"}],"stateMutability":"nonpayable"},{"type":"event","name":"PimlicoSimulationV8Deployed","inputs":[],"anonymous":false}],"bytecode":{"object":"0x6080806040523460a257615c128181016001600160401b03811183821017608e578291610427833903905ff080156083575f80546001600160a01b0319166001600160a01b0392909216919091178155604051907f0ac1632485823e92e5d9da7cd439a7aa48fa801afc8085b892e88171ef873ea09080a161038090816100a78239f35b6040513d5f823e3d90fd5b634e487b7160e01b5f52604160045260245ffd5b5f80fdfe60806040526004361015610011575f80fd5b5f3560e01c63c18f522614610024575f80fd5b346102ac5760403660031901126102ac5760043573ffffffffffffffffffffffffffffffffffffffff81168091036102ac5760243567ffffffffffffffff81116102ac57366023820112156102ac578060040135610081816102e6565b9161008f60405193846102c4565b8183526024602084019260051b820101903682116102ac5760248101925b82841061023557845185876100c1836102e6565b926100cf60405194856102c4565b8084526100de601f19916102e6565b015f5b8181106102245750505f5b82518110156101bd5760019060605f8061016973ffffffffffffffffffffffffffffffffffffffff825416610177610124878b610322565b5160405193849160208301947f850aaf6200000000000000000000000000000000000000000000000000000000865260248401526040604484015260648301906102fe565b03601f1981018452836102c4565b82885a935193f1156101a0575b61018e8287610322565b526101998186610322565b50016100ec565b503d604051906020818301016040528082525f602083013e610184565b836040518091602082016020835281518091526040830190602060408260051b8601019301915f905b8282106101f557505050500390f35b919360019193955060206102148192603f198a820301865288516102fe565b96019201920185949391926101e6565b8060606020809388010152016100e1565b833567ffffffffffffffff81116102ac578201366043820112156102ac5760248101359167ffffffffffffffff83116102b05760405161027f601f8501601f1916602001826102c4565b83815236604484860101116102ac575f6020858196604483970183860137830101528152019301926100ad565b5f80fd5b634e487b7160e01b5f52604160045260245ffd5b90601f8019910116810190811067ffffffffffffffff8211176102b057604052565b67ffffffffffffffff81116102b05760051b60200190565b805180835260209291819084018484015e5f828201840152601f01601f1916010190565b80518210156103365760209160051b010190565b634e487b7160e01b5f52603260045260245ffdfea264697066735822122094896717db372124da44b237ff7ae104186f32966f8761815ea778db7433ae5e64736f6c634300081c0033610180604052346101b8576040516100186040826101eb565b600781526020810190664552433433333760c81b82526040519161003d6040846101eb565b600183526020830191603160f81b83526100568161020e565b61012052610063846103a9565b61014052519020918260e05251902080610100524660a0526040519060208201927f8b73c3c69bb8fe3d512ecc4cf759cc79239f7b179b0ffacaa9a75d522b39400f8452604083015260608201524660808201523060a082015260a081526100cc60c0826101eb565b5190206080523060c05230610160526040516100e7816101bc565b5f815260208101905f8252806020604051610101816101bc565b5f81520152600480546001600160a01b0319169055516005555160065560405161573090816104e2823960805181614039015260a051816140f6015260c0518161400a015260e05181614088015261010051816140ae015261012051816114c1015261014051816114ea0152610160518181816130bb015281816136b00152818161370b015281816138d001528181613986015281816139e001528181613af401528181613baa01528181613c040152613d180152f35b5f80fd5b604081019081106001600160401b038211176101d757604052565b634e487b7160e01b5f52604160045260245ffd5b601f909101601f19168101906001600160401b038211908210176101d757604052565b908151602081105f14610288575090601f815111610248576020815191015160208210610239571790565b5f198260200360031b1b161790565b604460209160405192839163305a27a960e01b83528160048401528051918291826024860152018484015e5f828201840152601f01601f19168101030190fd5b6001600160401b0381116101d757600254600181811c9116801561039f575b602082101461038b57601f8111610358575b50602092601f82116001146102f757928192935f926102ec575b50508160011b915f199060031b1c19161760025560ff90565b015190505f806102d3565b601f1982169360025f52805f20915f5b8681106103405750836001959610610328575b505050811b0160025560ff90565b01515f1960f88460031b161c191690555f808061031a565b91926020600181928685015181550194019201610307565b60025f52601f60205f20910160051c810190601f830160051c015b81811061038057506102b9565b5f8155600101610373565b634e487b7160e01b5f52602260045260245ffd5b90607f16906102a7565b908151602081105f146103d4575090601f815111610248576020815191015160208210610239571790565b6001600160401b0381116101d757600354600181811c911680156104d7575b602082101461038b57601f81116104a4575b50602092601f821160011461044357928192935f92610438575b50508160011b915f199060031b1c19161760035560ff90565b015190505f8061041f565b601f1982169360035f52805f20915f5b86811061048c5750836001959610610474575b505050811b0160035560ff90565b01515f1960f88460031b161c191690555f8080610466565b91926020600181928685015181550194019201610453565b60035f52601f60205f20910160051c810190601f830160051c015b8181106104cc5750610405565b5f81556001016104bf565b90607f16906103f356fe60806040526004361015610022575b3615610018575f80fd5b6100206131b6565b005b5f3560e01c80630396cb601461021157806303d1dcaf1461020c57806309ccb880146102075780630bd28e3b146102025780630da82661146101fd5780630dbfc6bd146101f857806313c65a6e146101f3578063154e58dc146101ee5780631b2e01b8146101e9578063205c2878146101e457806321e60b37146101df57806322cdde4c146101da578063263934db146101d557806330ec25d1146101d057806335567e1a146101cb57806344403473146101c65780635287ce12146101c157806369683cfa146101bc57806370a08231146101b75780637472949c146101b257806376ad6123146101ad57806384b0196e146101a8578063850aaf62146101a357806397b2dcb91461019e578063b760faf914610199578063bb9fe6bf14610194578063c23a5cea1461018f578063c3bce0091461018a578063c579f76b14610185578063f7e426e8146101805763fe2171cb0361000e57611c43565b611c0a565b611aea565b611ab3565b611990565b61186d565b61184d565b6115fe565b6115c2565b6114a9565b611470565b611450565b611415565b611241565b611134565b6110ef565b611013565b610f96565b610e80565b610e57565b610c8e565b610a9c565b610a3f565b610a05565b6109e3565b610966565b6107b8565b6105ea565b6105a9565b610518565b60203660031901126104005760043563ffffffff811690818103610400576103fb7fa5ae833d0bb1dcd632d98a8b70973e8516812898e19bf27b70071ebc8dc52c01916103dd6102cf6102bf610277336001600160a01b03165f525f60205260405f2090565b96610283811515611c92565b6102b06001890154916102a96102a08463ffffffff9060781c1690565b63ffffffff1690565b1115611cdd565b60081c6001600160701b031690565b6001600160701b03349116611d59565b946102db861515611d66565b6102ee6001600160701b03871115611db1565b546102f76106ee565b908152600160208201526001600160701b038616604082015263ffffffff831660608201525f608082015261033c336001600160a01b03165f525f60205260405f2090565b81518155602082015160019091018054604084015160608501516080909501517fffffffffffffff0000000000000000000000000000000000000000000000000090921660ff941515949094169390931760089390931b6effffffffffffffffffffffffffff00169290921760789390931b72ffffffff000000000000000000000000000000169290921760989190911b65ffffffffffff60981b16179055565b6040805194855263ffffffff90911660208501523393918291820190565b0390a2005b5f80fd5b9181601f840112156104005782359167ffffffffffffffff8311610400576020808501948460051b01011161040057565b6001600160a01b0381160361040057565b359061045182610435565b565b60c06003198201126104005760043567ffffffffffffffff8111610400578161047e91600401610404565b929092916024359067ffffffffffffffff821161040057606090829003600319011261040057600401906044356104b481610435565b90606435906084359060a43590565b805180835260209291819084018484015e5f828201840152601f01601f1916010190565b60806040610515936020845280516020850152602081015115158285015201519160608082015201906104c3565b90565b346104005761059b61058f61057861052f36610453565b969194909561053f949394611dfc565b5061057261054b611e1b565b6105606105588780611e8a565b825190613255565b61056a8680611e8a565b905a91613343565b50613509565b61058a6105858280611e8a565b6135c5565b613657565b604051918291826104e7565b0390f35b5f91031261040057565b34610400575f3660031901126104005760206105c3611eab565b6001600160a01b0360405191168152f35b602435906001600160c01b038216820361040057565b34610400576020366003190112610400576004356001600160c01b03811681036104005761063490335f52600160205260405f20906001600160c01b03165f5260205260405f2090565b61063e8154611f25565b9055005b634e487b7160e01b5f52604160045260245ffd5b60a0810190811067ffffffffffffffff82111761067257604052565b610642565b6060810190811067ffffffffffffffff82111761067257604052565b610140810190811067ffffffffffffffff82111761067257604052565b6040810190811067ffffffffffffffff82111761067257604052565b90601f8019910116810190811067ffffffffffffffff82111761067257604052565b6040519061045160a0836106cc565b60405190610451610140836106cc565b60405190610451610100836106cc565b604051906104516040836106cc565b604051906104516060836106cc565b60405190610451610120836106cc565b67ffffffffffffffff811161067257601f01601f191660200190565b9291926107738261074b565b9161078160405193846106cc565b829481845281830111610400578281602093845f960137010152565b9080601f830112156104005781602061051593359101610767565b34610400576102203660031901126104005760043567ffffffffffffffff8111610400576107ea90369060040161079d565b3660231901906101c08212610400576101406040519261080984610656565b12610400576108166106fd565b6108206024610446565b815260443560208201526064356040820152608435606082015260a435608082015260c43560a082015260e43560c082015261085d610104610446565b60e0820152610124356101008201526101443561012082015282526101643560208301526101843560408301526101a43560608301526101c43560808301526101e4359067ffffffffffffffff8211610400576040926108c46108cf93369060040161079d565b906102043592611f44565b82519182526020820152f35b6020600319820112610400576004359067ffffffffffffffff82116104005761090691600401610404565b9091565b9061010060e061051593805184526020810151602085015260408101516040850152606081015160608501526080810151608085015260a081015160a085015260c0810151151560c08501520151918160e082015201906104c3565b346104005761097d610977366108db565b90612151565b6040518091602082016020835281518091526040830190602060408260051b8601019301915f905b8282106109b457505050500390f35b919360019193955060206109d38192603f198a8203018652885161090a565b96019201920185949391926109a5565b34610400575f3660031901126104005760206109fd614000565b604051908152f35b34610400575f3660031901126104005760206040517f29a0bca4af4be3421398da00295e58e6d7de38cb492214754cb6a47507dd6f8e8152f35b34610400576040366003190112610400576020610a93600435610a6181610435565b6001600160a01b03610a716105d4565b91165f526001835260405f20906001600160c01b03165f5260205260405f2090565b54604051908152f35b3461040057604036600319011261040057600435610ab981610435565b602435335f525f60205260405f2091825490818311610b3d575f8080856001600160a01b03829589610aee846100209a612318565b9055604080516001600160a01b03831681526020810185905233917fd1c19fbcd4551a5edfb66d43d2e337c04837afda3482b42bdf569a8fccdae5fb91a2165af1610b37612325565b50612354565b606460405162461bcd60e51b815260206004820152601960248201527f576974686472617720616d6f756e7420746f6f206c61726765000000000000006044820152fd5b90816101209103126104005790565b610200600319820112610400576004359160243567ffffffffffffffff81116104005782610bc091600401610b81565b916043190160446101c082126104005761014060405192610be084610656565b12610400576101a090610bf16106fd565b610bfa82610446565b81526020820135602082015260408201356040820152606082013560608201526080820135608082015260a082013560a082015260c082013560c0820152610c4460e08301610446565b60e082015261010082013561010082015261012082013561012082015283526101408101356020840152610160810135604084015261018081013560608401520135608082015290565b3461040057610c9c36610b90565b90915f91805193610cad8582613255565b610cb68161239f565b60208301526001600160a01b0360e0610cf087610100604082015160608301510160808301510160a08301510160c0830151019101510290565b96876040860152015116610d1a575b604080515f8082526020820187905291810191909152606090f35b909192505a93610d398351916001600160a01b0360e084015116614b2d565b15610de057906080610d50920151928391856151d2565b9390505a900311610d68575061059b905f8080610cff565b60408051631101335b60e11b815260048101929092526024820152602760448201527f41413336206f766572207061796d6173746572566572696669636174696f6e4760648201527f61734c696d69740000000000000000000000000000000000000000000000000060848201528060a481015b0390fd5b60848460405190631101335b60e11b8252600482015260406024820152601e60448201527f41413331207061796d6173746572206465706f73697420746f6f206c6f7700006064820152fd5b6020600319820112610400576004359067ffffffffffffffff82116104005761051591600401610b81565b346104005760206109fd610e6a36610e2c565b61239f565b90602061051592818152019061090a565b3461040057610eac610e91366108db565b809291610e9c61205c565b50610ea6826120aa565b50612151565b5f198201918211610ed95761059b91610ec49161213d565b5160405191829160208352602083019061090a565b611d28565b906105159060e06080610f30818651610140865280516101408701526020810151610160870152604081015161018087015260608101516101a0870152015160a06101c08601526101e08501906104c3565b60208087015180518683015201516040850152946040810151805160608601526020015160808501526060810151805160a08601526020015160c0850152015191019080516001600160a01b031682526020908101518051828401520151604090910152565b3461040057610fad610fa7366108db565b90612586565b6040518091602082016020835281518091526040830190602060408260051b8601019301915f905b828210610fe457505050500390f35b919360019193955060206110038192603f198a82030186528851610ede565b9601920192018594939192610fd5565b3461040057604036600319011261040057602060043561103281610435565b6001600160a01b036110426105d4565b91165f52600182526110688160405f20906001600160c01b03165f5260205260405f2090565b546040805192901b67ffffffffffffffff1916178152f35b9181601f840112156104005782359167ffffffffffffffff8311610400576020838186019501011161040057565b906060600319830112610400576004356110c781610435565b916024359067ffffffffffffffff8211610400576110e791600401611080565b909160443590565b34610400575f8080611100366110ae565b939181604094929451948592833781018381520393f161111e612325565b901561112657005b805190811561040057602001fd5b34610400576020366003190112610400576001600160a01b0360043561115981610435565b5f608060405161116881610656565b8281528260208201528260408201528260608201520152165f525f60205261059b60405f206111ed65ffffffffffff6001604051936111a685610656565b80548552015460ff8116151560208501526001600160701b038160081c16604085015263ffffffff8160781c16606085015260981c16608083019065ffffffffffff169052565b60405191829182919091608065ffffffffffff8160a0840195805185526020810151151560208601526001600160701b03604082015116604086015263ffffffff6060820151166060860152015116910152565b346104005761124f36610b90565b9190915a928151936112618583613255565b61126a8261239f565b60208401526040850151936112b66effffffffffffffffffffffffffffff8660c08901511760608901511760808901511760a08901511761010089015117610120890151171115612618565b6112e186610100604082015160608301510160808301510160a08301510160c0830151019101510290565b946113166113126112f55a89898988613426565b98602061130982516001600160a01b031690565b9101519061426b565b1590565b6113c0575a8303116113735750926113579260806113529360a061135e975a9560408601526060808601525a9003910135019101525a90612318565b612664565b6064900490565b604080519283525f6020840152820152606090f35b60408051631101335b60e11b815260048101929092526024820152601e60448201527f41413236206f76657220766572696669636174696f6e4761734c696d697400006064820152608490fd5b610ddc82604051918291631101335b60e11b835260048301608091815260406020820152601a60408201527f4141323520696e76616c6964206163636f756e74206e6f6e636500000000000060608201520190565b34610400576020366003190112610400576001600160a01b0360043561143a81610435565b165f525f602052602060405f2054604051908152f35b346104005761059b61058f61146436610453565b959490949391936126d1565b346104005761059b61058f61149761148736610453565b9691949095610572949394611dfc565b6114a46105858280611e8a565b61394b565b34610400575f366003190112610400576115696114e57f000000000000000000000000000000000000000000000000000000000000000061540d565b61150e7f00000000000000000000000000000000000000000000000000000000000000006154f3565b602060405161151d82826106cc565b5f81528161157781830194601f1983013687376040519788977f0f00000000000000000000000000000000000000000000000000000000000000895260e0858a015260e08901906104c3565b9087820360408901526104c3565b914660608701523060808701525f60a087015285830360c087015251918281520192915f5b8281106115ab57505050500390f35b83518552869550938101939281019260010161159c565b34610400576040366003190112610400576115de600435610435565b60243567ffffffffffffffff811161040057610020903690600401611080565b346104005760603660031901126104005760043567ffffffffffffffff81116104005761162f903690600401610b81565b6024359061163c82610435565b60443567ffffffffffffffff81116104005761165c90369060040161079d565b9061166561205c565b507f9b779b17422d0df92223018b32b4d1fa46e071723d6817e2486d003becc55f005c6118255761059b9260017f9b779b17422d0df92223018b32b4d1fa46e071723d6817e2486d003becc55f005d6116bc611e1b565b926116c6836135c5565b6116d08484612c53565b9091945a6060880151886116e7606085018561294a565b5f6003821161181d575b7fffffffff0000000000000000000000000000000000000000000000000000000016638dd7712f60e01b0361180457505061175561176961176e956020840151604051938492638dd7712f60e01b6020850152604060248501526064840190614310565b90604483015203601f1981018352826106cc565b611f44565b9290965b5f946060966001600160a01b0381166117d9575b50509560806117c0969701519761179b61070d565b988952602089015260408801526060870152608086015260a0850152151560c0840152565b60e08201526117cd6142b9565b60405191829182610e6f565b6117c097505f92965090829182602083519301915af19560806117fa612325565b9795919796611786565b611815955090611769913691610767565b929096611772565b5081356116f1565b7f3ee5aeb5000000000000000000000000000000000000000000000000000000005f5260045ffd5b60203660031901126104005761002060043561186881610435565b61275c565b34610400575f36600319011261040057335f525f602052600160405f2001805463ffffffff8160781c161561194c576118d56118c76102a0836118bb6118b661190f9660ff1690565b6127b5565b60781c63ffffffff1690565b65ffffffffffff4216612800565b82547fffffffffffffff000000000000ffffffffffffffffffffffffffffffffffff001665ffffffffffff60981b609883901b1617909255565b60405165ffffffffffff909116815233907ffa9b3c14cc825c412c9ed81b3ba365a5b459439403f18829e572ed53a4180f0a9080602081016103fb565b606460405162461bcd60e51b815260206004820152600a60248201527f6e6f74207374616b6564000000000000000000000000000000000000000000006044820152fd5b34610400576020366003190112610400576100205f8080806004356119b481610435565b6001600160a01b0360016119d8336001600160a01b03165f525f60205260405f2090565b0191611a66835493611a3e65ffffffffffff611a2a611a10611a04896001600160701b039060081c1690565b6001600160701b031690565b97611a1c89151561281e565b60981c65ffffffffffff1690565b16611a36811515612869565b4210156128b4565b80547fffffffffffffff000000000000000000000000000000000000000000000000ff169055565b604080516001600160a01b03831681526020810185905233917fb7c918e0e249f999e965cafeb6c664271b3f4317d296461500e71da39f0cbda391a2165af1611aad612325565b506128ff565b346104005761059b611acc611ac736610e2c565b612a3f565b604051918291602083526020830190610ede565b8015150361040057565b34610400576102203660031901126104005760043560243567ffffffffffffffff811161040057611b1f903690600401610b81565b3660431901916101c083126104005761014060405193611b3e85610656565b126104005761059b92611bed92611b536106fd565b611b5d6044610446565b81526064356020820152608435604082015260a435606082015260c435608082015260e43560a08201526101043560c0820152611b9b610124610446565b60e0820152610144356101008201526101643561012082015282526101843560208301526101a43560408301526101c43560608301526101e43560808301526102043592611be884611ae0565b612e2e565b604080519384526020840192909252908201529081906060820190565b3461040057611c24611c1b366110ae565b92919091613066565b9061059b604051928392151583526040602084015260408301906104c3565b3461040057611c65611c54366108db565b809291611c5f612504565b50612586565b5f198201918211610ed95761059b91611c7d9161213d565b51604051918291602083526020830190610ede565b15611c9957565b606460405162461bcd60e51b815260206004820152601a60248201527f6d757374207370656369667920756e7374616b652064656c61790000000000006044820152fd5b15611ce457565b606460405162461bcd60e51b815260206004820152601c60248201527f63616e6e6f7420646563726561736520756e7374616b652074696d65000000006044820152fd5b634e487b7160e01b5f52601160045260245ffd5b906113888201809211610ed957565b9060018201809211610ed957565b91908201809211610ed957565b15611d6d57565b606460405162461bcd60e51b815260206004820152601260248201527f6e6f207374616b652073706563696669656400000000000000000000000000006044820152fd5b15611db857565b606460405162461bcd60e51b815260206004820152600e60248201527f7374616b65206f766572666c6f770000000000000000000000000000000000006044820152fd5b60405190611e0982610677565b60606040835f81525f60208201520152565b60405190611e2882610656565b5f608083604051611e3881610693565b83815283602082015283604082015283606082015283838201528360a08201528360c08201528360e0820152836101008201528361012082015281528260208201528260408201528260608201520152565b90359061011e1981360301821215610400570190565b6040513d5f823e3d90fd5b6040517f09ccb880000000000000000000000000000000000000000000000000000000008152602081600481305afa908115611f20575f91611eeb575090565b90506020813d602011611f18575b81611f06602093836106cc565b81010312610400575161051581610435565b3d9150611ef9565b611ea0565b5f198114610ed95760010190565b9060206105159281815201906104c3565b919091825190606082015191611f5d603f5a0260061c90565b61271060a083015185010111611ff1578151611f8a575b505050610906925a900360808301510191613e26565b9161131291611fa3611fa894516001600160a01b031690565b613d93565b611fb4575f8080611f74565b610ddc611fbf613da4565b6040519182917f462c71b200000000000000000000000000000000000000000000000000000000835260048301611f33565b604051631101335b60e11b815280610ddc600482016080905f815260406020820152600f60408201527f41413935206f7574206f6620676173000000000000000000000000000000000060608201520190565b67ffffffffffffffff81116106725760051b60200190565b60405190610100820182811067ffffffffffffffff82111761067257604052606060e0835f81525f60208201525f60408201525f838201525f60808201525f60a08201525f60c08201520152565b906120b482612044565b6120c160405191826106cc565b82815280926120d2601f1991612044565b01905f5b8281106120e257505050565b6020906120ed61205c565b828285010152016120d6565b634e487b7160e01b5f52603260045260245ffd5b90821015612124576105159160051b810190611e8a565b6120f9565b604051906121386020836106cc565b5f8252565b80518210156121245760209160051b010190565b61215a826120aa565b915f5b81811061216a5750505090565b61217581838561210d565b9060205f60405161218683826106cc565b5261218f61205c565b507f9b779b17422d0df92223018b32b4d1fa46e071723d6817e2486d003becc55f005c61182557600192837f9b779b17422d0df92223018b32b4d1fa46e071723d6817e2486d003becc55f005d6121e4611e1b565b906121ee816135c5565b826121f98383612c53565b929091935a9086606081015191612213606082018261294a565b5f600382116122f3575b7fffffffff0000000000000000000000000000000000000000000000000000000016638dd7712f60e01b036122db57505061176985638dd7712f60e01b926117556122809886015191604051958694850152604060248501526064840190614310565b93905b608060609601519661229361070d565b978852870152604086015283850152608084015260a08301525f60c083015260e08201526122bf6142b9565b6122c9828761213d565b526122d4818661213d565b500161215d565b6122ec965061176992503691610767565b9390612283565b50813561221d565b600319810191908211610ed957565b5f19810191908211610ed957565b91908203918211610ed957565b3d1561234f573d906123368261074b565b9161234460405193846106cc565b82523d5f602084013e565b606090565b1561235b57565b606460405162461bcd60e51b815260206004820152601260248201527f6661696c656420746f20776974686472617700000000000000000000000000006044820152fd5b610515906123ac816141d8565b6123b4614000565b916124908135926123c484610435565b60208301359080156124cc5761248290935b6123ec6123e6606083018361294a565b90615698565b90608081013560a08201359061240e6123e660c08501359460e081019061294a565b93604051988997602089019b8c94919261010096939998979491996001600160a01b0361012088019b7f29a0bca4af4be3421398da00295e58e6d7de38cb492214754cb6a47507dd6f8e895216602088015260408701526060860152608085015260a084015260c083015260e08201520152565b03601f1981018352826106cc565b51902090604291604051917f19010000000000000000000000000000000000000000000000000000000000008352600283015260228201522090565b506124826124dd604085018561294a565b908160405191823720936123d6565b604051906124f9826106b0565b5f6020838281520152565b6040519061251182610656565b8160405161251e81610656565b5f81525f60208201525f60408201525f60608201526060608082015281526125446124ec565b60208201526125516124ec565b604082015261255e6124ec565b6060820152608060405191612572836106b0565b5f835261257d6124ec565b60208401520152565b61258f82612044565b9161259d60405193846106cc565b808352601f196125ac82612044565b015f5b8181106125f45750505f5b8181106125c75750505090565b806125d8611ac7600193858761210d565b6125e2828761213d565b526125ed818661213d565b50016125ba565b6020906125ff612504565b828288010152016125af565b908092918237015f815290565b1561261f57565b60405162461bcd60e51b815260206004820152601860248201527f41413934206761732076616c756573206f766572666c6f7700000000000000006044820152606490fd5b90607382029180830460731490151715610ed957565b3561051581610435565b604051906126936020836106cc565b5f808352366020840137565b906126a98261074b565b6126b660405191826106cc565b82815280926126c7601f199161074b565b0190602036910137565b906126e491969594939296610572611dfc565b6001600160a01b036126f68680611e8a565b61271f60208801359161270883610435565b612710611e1b565b9061271a816135c5565b612c53565b50505016156127315761051594613b6f565b505050505061273e612684565b6040519061274b82610677565b5f82525f6020830152604082015290565b7f2da466a7b24304f47e87fa2e1e5a81b9831ce54fec19055ce277ca2f39ba42c460206001600160a01b036127a934856001600160a01b03165f525f60205260405f209081540180915590565b936040519485521692a2565b156127bc57565b606460405162461bcd60e51b815260206004820152601160248201527f616c726561647920756e7374616b696e670000000000000000000000000000006044820152fd5b9065ffffffffffff8091169116019065ffffffffffff8211610ed957565b1561282557565b606460405162461bcd60e51b815260206004820152601460248201527f4e6f207374616b6520746f2077697468647261770000000000000000000000006044820152fd5b1561287057565b606460405162461bcd60e51b815260206004820152601d60248201527f6d7573742063616c6c20756e6c6f636b5374616b6528292066697273740000006044820152fd5b156128bb57565b606460405162461bcd60e51b815260206004820152601b60248201527f5374616b65207769746864726177616c206973206e6f742064756500000000006044820152fd5b1561290657565b606460405162461bcd60e51b815260206004820152601860248201527f6661696c656420746f207769746864726177207374616b6500000000000000006044820152fd5b903590601e1981360301821215610400570180359067ffffffffffffffff82116104005760200191813603831361040057565b906014116104005790601490565b909291928360141161040057831161040057601401916013190190565b909291928360341161040057831161040057603401916033190190565b356bffffffffffffffffffffffff198116929190601482106129e5575050565b6bffffffffffffffffffffffff1960149290920360031b82901b16169150565b60405190612a12826106b0565b6004546001600160a01b03168252604051602083612a2f836106b0565b6005548352600654828401520152565b612a47612504565b50612a50611e1b565b90612a5a816135c5565b612a648282612c53565b50919092612a7283856143d3565b612a8f612a8a60e0835101516001600160a01b031690565b61457d565b91612abd612aa9612a8a84516001600160a01b0390511690565b91612ab26124ec565b50604081019061294a565b9060148210612b9857612adf612ad9612ae593612a8a9361297d565b906129c5565b60601c90565b916001600160a01b038616946080820151966060604084015193015192612b0a6106ee565b9889526020890152604088015260608701526080860152612b29612a05565b9380151580612b8d575b612b5b575b50612b416106ee565b948552602085015260408401526060830152608082015290565b909350612b678161457d565b612b81612b7261071d565b6001600160a01b039093168352565b6020820152925f612b38565b506001811415612b33565b5050612ae55f61457d565b15612bab5750565b60405190631101335b60e11b825260048201526040602482015280610ddc60448201604090601881527f41413934206761732076616c756573206f766572666c6f77000000000000000060208201520190565b15612c065750565b60408051631101335b60e11b815260048101929092526024820152601a60448201527f4141323520696e76616c6964206163636f756e74206e6f6e63650000000000006064820152608490fd5b9190915f915a93805192612c678482613255565b612c80604051612c768361239f565b6020850152604052565b604084015195612cc85f6effffffffffffffffffffffffffffff8960c08901511760608901511760808901511760a08901511761010089015117610120890151171115612ba3565b612d13612cf686610100604082015160608301510160808301510160a08301510160c0830151019101510290565b806040860152612d0a608085013560801c90565b9085855f613426565b96612d3c5f612d37612d2c89516001600160a01b031690565b60208a01519061426b565b612bfe565b5a820311612ddb576060946001600160a01b03612d6460e05a9301516001600160a01b031690565b16151580612dd3575b612d9b575b60809291612d8961135761135260a0945a90612318565b9660608601525a900391013501910152565b945061135295509060a0608092612db1836145bd565b50612d89611357612dc387865f61411c565b9a90999450505050919250612d72565b506001612d6d565b604051631101335b60e11b815280610ddc5f60048301608091815260406020820152601e60408201527f41413236206f76657220766572696669636174696f6e4761734c696d6974000060608201520190565b939092915f935a8251612e418184613255565b612e5a604051612e508561239f565b6020870152604052565b604081015197612ea2816effffffffffffffffffffffffffffff8b60c08601511760608601511760808601511760a08601511761010086015117610120860151171115612ba3565b612eed612ed083610100604082015160608301510160808301510160a08301510160c0830151019101510290565b806040880152612ee4608087013560801c90565b90878785613426565b98612f1182612d37612f0686516001600160a01b031690565b60208701519061426b565b5a840311611373576060966001600160a01b03612f3960e05a9501516001600160a01b031690565b1615159081612f99575b50612f61575b5060809291612d8961135761135260a0945a90612318565b611352975060a091965091612d89611357612f8a87878097612f8460809a6145bd565b5061411c565b9a909994505050509192612f49565b90505f612f43565b908060209392818452848401375f828201840152601f01601f1916010190565b6040906001600160a01b0361051595931681528160208201520191612fa1565b908151811015612124570160200190565b919060408382031261040057825161300981611ae0565b9260208101519067ffffffffffffffff8211610400570181601f82011215610400578051906130378261074b565b9261304560405194856106cc565b8284526020838301011161040057815f9260208093018386015e8301015290565b91925f936001600160a01b036060941691823b15610400576130e4935f80946040518097819682957f850aaf620000000000000000000000000000000000000000000000000000000084526001600160a01b037f00000000000000000000000000000000000000000000000000000000000000001660048501612fc1565b0393f1908161319c575b506109065750506130fd612325565b90600482511061318e5761311961311483516122fb565b61269f565b60045b8351811015613178578061315b61313560019387612fe1565b517fff000000000000000000000000000000000000000000000000000000000000001690565b613171613167836122fb565b915f1a9185612fe1565b530161311c565b5061090691925060208082518301019101612ff2565b9050613198612684565b5f91565b806131aa5f6131b0936106cc565b8061059f565b5f6130ee565b6104513361275c565b156131c657565b606460405162461bcd60e51b815260206004820152601d60248201527f4141393320696e76616c6964207061796d6173746572416e64446174610000006044820152fd5b1561321157565b606460405162461bcd60e51b815260206004820152601660248201527f4141393820696e76616c6964207061796d6173746572000000000000000000006044820152fd5b6132ec906132726132658261267a565b6001600160a01b03168452565b6020810135602084015261329f6080820135906fffffffffffffffffffffffffffffffff8260801c921690565b6060850152604084015260a081013560c08401526132d660c0820135906fffffffffffffffffffffffffffffffff8260801c921690565b61010085015261012084015260e081019061294a565b809291926132f957505050565b6133158161045194613310603460e09510156131bf565b6145dc565b60a08501526080840152916133346001600160a01b038416151561320a565b01906001600160a01b03169052565b9291613387908251926001600160a01b0360e0818651169561337361336b60408b018b61294a565b90865f61463a565b015116905f911596876133f3575b5f614a26565b9261338f5750565b5f61339991614b2d565b156133a057565b604051631101335b60e11b815280610ddc5f60048301608091815260406020820152601760408201527f41413231206469646e2774207061792070726566756e6400000000000000000060608201520190565b915061340f856001600160a01b03165f525f60205260405f2090565b54801561341f57505f5b91613381565b5f03613419565b9290949361346c908351936001600160a01b0360e0818751169661345861345060408d018d61294a565b90868c61463a565b015116905f911598896134d4575b87614a26565b9461347657505050565b61347f91614b2d565b156134875750565b60408051631101335b60e11b815260048101929092526024820152601760448201527f41413231206469646e2774207061792070726566756e640000000000000000006064820152608490fd5b91506134f0866001600160a01b03165f525f60205260405f2090565b548581111561350257505f5b91613466565b85036134fc565b915f5b828110156135bf5761351c611e1b565b908060051b85013591605e1986360301831215610400576135536001938701916135496105858480611e8a565b61271a8380611e8a565b505050602081016135726135668261267a565b6001600160a01b031690565b156135b8575f9182613592613587829461267a565b92604081019061294a565b91906135a36040518094819361260b565b03925af1506135b0612325565b505b0161350c565b50506135b2565b50915050565b6135f8906135d6604082018261294a565b916135f08135916135e683610435565b60e081019061294a565b939092614b52565b80516136015750565b610ddc90604051918291631101335b60e11b83525f60048401526040602484015260448301906104c3565b939291613652906001600160a01b036040931686526060602087015260608601906104c3565b930152565b93949094613663611dfc565b5082156138ae576136a392613676612129565b50915f6136855a886002614ee7565b5a906040519687928392631efc84dd60e31b84528c6004850161362c565b0381836001600160a01b037f0000000000000000000000000000000000000000000000000000000000000000165af1918215611f20575f945f9361388c575b5082948093811561386a575050613700909592919394955b85611d59565b806001600160a01b037f000000000000000000000000000000000000000000000000000000000000000016965b846137388885612318565b10613840575a61374788611d3c565b116138095791869593918995935f8c8b61377961377061376a886137999f611d59565b60011c90565b809b6002614ee7565b835a936040519e8f9586948593631efc84dd60e31b85526004850161362c565b03925af1988915611f20575f905f9a6137e2575b50156137cd575050506137bf8461230a565b95915b93909294959161372d565b939650946137dc919750611d4b565b946137c2565b90506138019199503d805f833e6137f981836106cc565b810190612ff2565b98905f6137ad565b7fe2c4d0be000000000000000000000000000000000000000000000000000000005f5260048290526024879052604483905260645ffd5b965096505091955050613862915061385661072c565b93845215156020840152565b604082015290565b9650965050955050505061386261387f61072c565b5f81529215156020840152565b9092506138a49194503d805f833e6137f981836106cc565b939093915f6136e2565b906138c392505a905f6136855a886002614ee7565b0381836001600160a01b037f0000000000000000000000000000000000000000000000000000000000000000165af1928315611f20575f945f94613929575b50839461391181945a90612318565b94811561386a575050613700909592919394956136fa565b9093506139419194503d805f833e6137f981836106cc565b939093925f613902565b93949094613957611dfc565b508215613ad2576139799261396a612129565b50915f6136855a886003614ee7565b0381836001600160a01b037f0000000000000000000000000000000000000000000000000000000000000000165af1918215611f20575f945f93613ab0575b5082948093811561386a5750506139d59095929193949585611d59565b806001600160a01b037f000000000000000000000000000000000000000000000000000000000000000016965b84613a0d8885612318565b10613840575a613a1c88611d3c565b116138095791869593918995935f8c8b613779613a3f61376a88613a489f611d59565b809b6003614ee7565b03925af1988915611f20575f905f9a613a91575b5015613a7c57505050613a6e8461230a565b95915b939092949591613a02565b93965094613a8b919750611d4b565b94613a71565b9050613aa89199503d805f833e6137f981836106cc565b98905f613a5c565b909250613ac89194503d805f833e6137f981836106cc565b939093915f6139b8565b90613ae792505a905f6136855a886003614ee7565b0381836001600160a01b037f0000000000000000000000000000000000000000000000000000000000000000165af1928315611f20575f945f94613b4d575b508394613b3581945a90612318565b94811561386a5750506139d5909592919394956136fa565b909350613b659194503d805f833e6137f981836106cc565b939093925f613b26565b93949094613b7b611dfc565b508215613cf657613b9d92613b8e612129565b50915f6136855a886001614ee7565b0381836001600160a01b037f0000000000000000000000000000000000000000000000000000000000000000165af1918215611f20575f945f93613cd4575b5082948093811561386a575050613bf99095929193949585611d59565b806001600160a01b037f000000000000000000000000000000000000000000000000000000000000000016965b84613c318885612318565b10613840575a613c4088611d3c565b116138095791869593918995935f8c8b613779613c6361376a88613c6c9f611d59565b809b6001614ee7565b03925af1988915611f20575f905f9a613cb5575b5015613ca057505050613c928461230a565b95915b939092949591613c26565b93965094613caf919750611d4b565b94613c95565b9050613ccc9199503d805f833e6137f981836106cc565b98905f613c80565b909250613cec9194503d805f833e6137f981836106cc565b939093915f613bdc565b90613d0b92505a905f6136855a886001614ee7565b0381836001600160a01b037f0000000000000000000000000000000000000000000000000000000000000000165af1928315611f20575f945f94613d71575b508394613d5981945a90612318565b94811561386a575050613bf9909592919394956136fa565b909350613d899194503d805f833e6137f981836106cc565b939093925f613d4a565b905f9283809360208451940192f190565b3d6108008111613dc8575b604051906020818301016040528082525f602083013e90565b50610800613daf565b634e487b7160e01b5f52602160045260245ffd5b60031115613def57565b613dd1565b90949392946003811015613def57606092613e1c9183526080602084015260808301906104c3565b9460408201520152565b92905f925a91855191613e3883615148565b92613e4d60e08201516001600160a01b031690565b91613e6360808a01518203606084015190615168565b01925f926001600160a01b0381169081613f045750505090613e906040949392516001600160a01b031690565b945b5a9003010102940151908482105f14613ed657613eae5f613de5565b7fdeadaa51000000000000000000000000000000000000000000000000000000005f5260205ffd5b84613efa9203906001600160a01b03165f525f60205260405f209081540180915590565b506104515f613de5565b96928251613f1b575b505050906040939291613e92565b919850949392505a97613f2d5f613de5565b60a05a920195865191813b15610400578692835f809489613f80604051988997889687947f7c627b2100000000000000000000000000000000000000000000000000000000865202908660048601613df4565b0393f19081613fec575b50613fcc57610ddc613f9a613da4565b6040519182917fad7954bc00000000000000000000000000000000000000000000000000000000835260048301611f33565b604094613fe2915a9003985a9003905190615168565b9192935f80613f0d565b806131aa5f613ffa936106cc565b5f613f8a565b6001600160a01b037f0000000000000000000000000000000000000000000000000000000000000000163014806140f3575b1561405b577f000000000000000000000000000000000000000000000000000000000000000090565b60405160208101907f8b73c3c69bb8fe3d512ecc4cf759cc79239f7b179b0ffacaa9a75d522b39400f82527f000000000000000000000000000000000000000000000000000000000000000060408201527f000000000000000000000000000000000000000000000000000000000000000060608201524660808201523060a082015260a081526140ed60c0826106cc565b51902090565b507f00000000000000000000000000000000000000000000000000000000000000004614614032565b9290925a93835161413f6001600160a01b0360e083015116604087015190614b2d565b1561416457906080614156920151948591846151d2565b9390945a900311610d685750565b60848360405190631101335b60e11b8252600482015260406024820152601e60448201527f41413331207061796d6173746572206465706f73697420746f6f206c6f7700006064820152fd5b909280926014946bffffffffffffffffffffffff199060601b1683528483013701015f815290565b6141e5604082018261294a565b90916141f461131283856152c7565b614264576142046142099161267a565b615309565b91601482116142405750506040516140ed816124826020820194856014916bffffffffffffffffffffffff199060601b1681520190565b816140ed9261424e9261298b565b91906124826040519384926020840196876141b0565b5050505f90565b6001600160a01b03165f52600160205267ffffffffffffffff6142a58260401c60405f20906001600160c01b03165f5260205260405f2090565b918254926142b284611f25565b9055161490565b5f7f9b779b17422d0df92223018b32b4d1fa46e071723d6817e2486d003becc55f005d565b9035601e198236030181121561040057016020813591019167ffffffffffffffff821161040057813603831361040057565b6105159161432e8161432184610446565b6001600160a01b03169052565b602082013560208201526143c46143b861437f61436461435160408701876142de565b6101206040880152610120870191612fa1565b61437160608701876142de565b908683036060880152612fa1565b6080850135608085015260a085013560a085015260c085013560c08501526143aa60e08601866142de565b9085830360e0870152612fa1565b926101008101906142de565b91610100818503910152612fa1565b6143e46001600160a01b03916155ab565b911661452a576144d7576143ff6001600160a01b03916155ab565b91166144845761440b57565b604051631101335b60e11b815280610ddc5f6004830160a091815260406020820152602160408201527f41413332207061796d61737465722065787069726564206f72206e6f7420647560608201527f650000000000000000000000000000000000000000000000000000000000000060808201520190565b604051631101335b60e11b815280610ddc5f60048301608091815260406020820152601460408201527f41413334207369676e6174757265206572726f7200000000000000000000000060608201520190565b604051631101335b60e11b815280610ddc5f60048301608091815260406020820152601760408201527f414132322065787069726564206f72206e6f742064756500000000000000000060608201520190565b604051631101335b60e11b815280610ddc5f60048301608091815260406020820152601460408201527f41413234207369676e6174757265206572726f7200000000000000000000000060608201520190565b906001600160a01b0361458e6124ec565b92165f525f60205263ffffffff600160405f2001546001600160701b038160081c16845260781c166020830152565b6145cb9060e081019061294a565b602411610400576014013560801c90565b9091826014116104005781359183602411610400576014810135936034116104005760609290921c92608090811c9260240135901c90565b90816020910312610400575161051581610435565b916020610515938181520191612fa1565b92909181614649575b50505050565b8251516001600160a01b03169361466083836152c7565b61491d57843b6148d05760148310614883575f6020614680613566611eab565b604087510151604051809481937f570e1a36000000000000000000000000000000000000000000000000000000008352826146bf8b8b60048401614629565b0393f1908115611f20575f91614854575b506001600160a01b0381169586156147ff576001600160a01b03168096036147aa573b1561475d5750612adf612ad97fd51a9c61267aa6196961883ecf5ff2da6619c37dac0fa92122513fb32c032d2d9361472a9361297d565b602083810151935160e00151604080516001600160a01b039485168152939091169183019190915290a35f808080614643565b60408051631101335b60e11b815260048101929092526024820152602060448201527f4141313520696e6974436f6465206d757374206372656174652073656e6465726064820152608490fd5b610ddc82604051918291631101335b60e11b835260048301608091815260406020820152602060408201527f4141313420696e6974436f6465206d7573742072657475726e2073656e64657260608201520190565b610ddc83604051918291631101335b60e11b835260048301608091815260406020820152601b60408201527f4141313320696e6974436f6465206661696c6564206f72204f4f47000000000060608201520190565b614876915060203d60201161487c575b61486e81836106cc565b810190614614565b5f6146d0565b503d614864565b60408051631101335b60e11b815260048101929092526024820152601760448201527f4141393920696e6974436f646520746f6f20736d616c6c0000000000000000006064820152608490fd5b60408051631101335b60e11b815260048101929092526024820152601f60448201527f414131302073656e64657220616c726561647920636f6e7374727563746564006064820152608490fd5b50906014811161492d5750505050565b8061494991604061493f613566611eab565b955101519361298b565b9190833b15610400575f809461498f96604051978896879586937fc09ad0d900000000000000000000000000000000000000000000000000000000855260048501612fc1565b0393f18015611f20576149a5575b808080614643565b806131aa5f6149b3936106cc565b5f61499d565b6149d160409295949395606083526060830190614310565b9460208201520152565b60a0906105159392815260606020820152600d60608201527f4141323320726576657274656400000000000000000000000000000000000000608082015281604082015201906104c3565b9291602095948692614a905f93614a82614a4982516001600160a01b0390511690565b976040519b8c930151888401957f19822f7c000000000000000000000000000000000000000000000000000000008752602485016149b9565b03601f1981018a52896106cc565b8285895193f15f519460203d03614b25575b60405215614aae575050565b3b614b005760408051631101335b60e11b815260048101929092526024820152601960448201527f41413230206163636f756e74206e6f74206465706c6f796564000000000000006064820152608490fd5b614b08613da4565b90610ddc6040519283926365c8fd4d60e01b8452600484016149db565b5f9150614aa2565b6001600160a01b03165f525f60205260405f2090815481811061426457039055600190565b50929192159081614c07575b50614bca576014811015614b77575b5050610515612129565b601411610400573560601c3b15614b8f575f80614b6d565b604051614b9d6040826106cc565b601b81527f41413330207061796d6173746572206e6f74206465706c6f7965640000000000602082015290565b5050604051614bda6040826106cc565b601981527f41413230206163636f756e74206e6f74206465706c6f79656400000000000000602082015290565b90503b155f614b5e565b6101208136031261040057614c2461073b565b90614c2e81610446565b825260208101356020830152604081013567ffffffffffffffff811161040057614c5b903690830161079d565b6040830152606081013567ffffffffffffffff811161040057614c81903690830161079d565b60608301526080810135608083015260a081013560a083015260c081013560c083015260e081013567ffffffffffffffff811161040057614cc5903690830161079d565b60e08301526101008101359067ffffffffffffffff821161040057614cec9136910161079d565b61010082015290565b60041115613def57565b916020936fffffffffffffffffffffffffffffffff198092603497946bffffffffffffffffffffffff199060601b1686521660148501521660248301528051928391018483015e01015f815290565b80516001600160a01b031682526105159160208201516020820152610100614dcf614d9f614d8d604086015161012060408701526101208601906104c3565b606086015185820360608701526104c3565b6080850151608085015260a085015160a085015260c085015160c085015260e085015184820360e08601526104c3565b920151906101008184039101526104c3565b60806101a0916101208151614dff8682516001600160a01b03169052565b602081015160208701526040810151604087015260608101516060870152838101518487015260a081015160a087015260c081015160c0870152614e5360e082015160e08801906001600160a01b03169052565b61010081015161010087015201516101208501526020810151610140850152604081015161016085015260608101516101808501520151910152565b614ebe614eb361020093969594965f84526102206020850152610220840190614d4e565b956040830190614de1565b0152565b61020090614ebe614eb35f949695968584526102206020850152610220840190614d4e565b614eef611e1b565b614f01614efc8480611e8a565b614c11565b614f0a83614cf5565b6002831461506357614f1b83614cf5565b60038314614fdc57505080614f31600192614cf5565b14614f7b5760405162461bcd60e51b815260206004820152600c60248201527f496e76616c6964206d6f646500000000000000000000000000000000000000006044820152606490fd5b80612482614fa6614f9f614f946020610515960161267a565b93604081019061294a565b3691610767565b936040519485937f444034730000000000000000000000000000000000000000000000000000000060208601526024850161362c565b9150926fffffffffffffffffffffffffffffffff61502361501c6150038661051597611e8a565b608001356fffffffffffffffffffffffffffffffff1690565b9260801b90565b91161760808201526124826040519384927fc579f76b00000000000000000000000000000000000000000000000000000000602085015260248401614ec2565b915092612482906fffffffffffffffffffffffffffffffff19846150ee6150e061509c6150966135e6856105159b611e8a565b906145dc565b9291905060609060e08a0195603487515111615124575b5060405196879460801b16906fffffffffffffffffffffffffffffffff198960801b169060208601614cff565b03601f1981018452836106cc565b526040519485937f21e60b3700000000000000000000000000000000000000000000000000000000602086015260248501614e8f565b61514191925061513a6135e682614f9f93611e8a565b80916129a8565b905f6150b3565b61012061010082015191015148018082105f14615163575090565b905090565b90619c40820181111561518157606491600a9103020490565b50505f90565b60a0906105159392815260606020820152600d60608201527f4141333320726576657274656400000000000000000000000000000000000000608082015281604082015201906104c3565b925f809195939295604051968261524760e06020880151976152388c6152296040840151602083019c8d997f52b7512c000000000000000000000000000000000000000000000000000000008b52602485016149b9565b038d601f19820190528d6106cc565b5101516001600160a01b031690565b895193f1933d91825f833e519381516040830196875190159182156152bb575b5081156152a9575b506152845750601f909101601f191601604052565b61528c613da4565b90610ddc6040519283926365c8fd4d60e01b845260048401615187565b9050601f605f1985019101105f61526f565b6040141591505f615267565b9060021161530457356bffffffffffffffffffffffff19167f77020000000000000000000000000000000000000000000000000000000000001490565b505f90565b60175f80833c5f51907fef010000000000000000000000000000000000000000000000000000000000007fffffff000000000000000000000000000000000000000000000000000000000083160361537e5750612adf61536c6105159260181b90565b6bffffffffffffffffffffffff191690565b3b156153c95760405162461bcd60e51b815260206004820152601860248201527f6e6f7420616e204549502d373730322064656c656761746500000000000000006044820152606490fd5b606460405162461bcd60e51b815260206004820152601260248201527f73656e64657220686173206e6f20636f646500000000000000000000000000006044820152fd5b60ff811461541e57610515906156a3565b506040515f6002548060011c916001821680156154e9575b6020841081146154d557838552849260208401919081156154bc5750600114615467575b50610515925003826106cc565b60025f90815291507f405787fa12a823e0f2b7631cc41b3ba8828b3321ca811111fa75cd3aa3bb5ace5b8483106154a557506105159350015f61545a565b805482840152859350602090920191600101615491565b60ff191682525061051593151560051b0190505f61545a565b634e487b7160e01b5f52602260045260245ffd5b92607f1692615436565b60ff811461550457610515906156a3565b506040515f6003548060011c916001821680156155a1575b6020841081146154d557838552849260208401919081156154bc575060011461554c5750610515925003826106cc565b60035f90815291507fc2575a0e9e593c00f959f8c92f12db2869c3395a3b0502d05e2516446f71f85b5b84831061558a57506105159350015f61545a565b805482840152859350602090920191600101615576565b92607f169261551c565b8015615691575f604080516155bf81610677565b828152826020820152015265ffffffffffff8160a01c168015615684575b6156659061564c6155f46155ff6155f48660d01c90565b65ffffffffffff1690565b926156246001600160a01b0361561361072c565b971687906001600160a01b03169052565b61563a6020870194859065ffffffffffff169052565b65ffffffffffff166040860181905290565b4211908115615668575b5091516001600160a01b031690565b91565b5161567b915065ffffffffffff166155f4565b4211155f615656565b5065ffffffffffff6155dd565b505f905f90565b816040519182372090565b60ff811690601f82116156d257604051916156bf6040846106cc565b6020808452838101919036833783525290565b7fb3512b0c000000000000000000000000000000000000000000000000000000005f5260045ffdfea2646970667358221220b04211654822ac861a2e15edb4bbe6e363cd286a35edc43210345f4b4bd8501b64736f6c634300081c0033","linkReferences":{}},"methodIdentifiers":{"simulateEntryPoint(address,bytes[])":"c18f5226"},"id":31}